S0160000417564696F416D706C69666965722E7372656383
S11300000C9434000C9451000C9451000C94510045
S11300100C94A6040C9451000C9451000C945100BF
S11300200C9451000C9451000C9451000C94510008
S11300300C9451000C9451000C9451000C945100F8
S11300400C9451000C9451000C9451000C945100E8
S11300500C9451000C9451000C9451000C945100D8
S11300600C9451000C94510011241FBECFEFD8E022
S1130070DEBFCDBF11E0A0E0B1E0E4E9F0E102C0F1
S113008005900D92AA33B107D9F721E0AAE3B1E0B4
S113009001C01D92AB33B207E1F70E9400050C9436
S11300A048080C940000CF93DF93CDB7DEB70E94CD
S11300B06D0384E290E024E230E0F90120812760BE
S11300C0FC01208385E290E025E230E0F901208103
S11300D02760FC012083DF91CF910895CF93DF93B4
S11300E000D000D0CDB7DEB78B836C8385E290E07F
S11300F025E230E0F9012081622F2C81422F50E06B
S113010021E030E002C0220F331F4A95E2F7209528
S11301102623FC01208319828B818A83CE010196D8
S11301200E94A50385E290E025E230E0F9012081F8
S1130130622F2C81422F50E021E030E002C0220FD8
S1130140331F4A95E2F7262BFC0120830F900F9072
S11301500F900F90DF91CF910895CF93DF93CDB798
S1130160DEB789EB90E029EB30E0F90120812C7FA8
S1130170FC01208388EB90E02CE0FC0120838CEBD5
S113018090E02CEB30E0F90120812460FC01208315
S1130190DF91CF910895CF93DF93CDB7DEB78CEB8A
S11301A090E024EAFC01208300008CEB90E0FC0149
S11301B080818823D4F7DF91CF910895CF93DF9383
S11301C0CDB7DEB78CEB90E024E9FC012083DF910E
S11301D0CF910895CF93DF931F92CDB7DEB7898374
S11301E08BEB90E02981FC0120838CEB90E024E8E8
S11301F0FC01208300008CEB90E0FC0180818823CB
S1130200D4F70F90DF91CF910895CF93DF931F928E
S1130210CDB7DEB789830E94CB008CE70E94EA0049
S113022080E00E94EA0089810E94EA000E94DE00C8
S11302300F90DF91CF910895CF93DF931F92CDB7A5
S1130240DEB789830E94CB008CE70E94EA0080E439
S11302500E94EA0089810E94EA000E94DE000F9059
S1130260DF91CF910895CF93DF93CDB7DEB78AE2C4
S113027090E02AE230E0F90120812860FC0120832B
S11302808BE290E02BE230E0F90120812860FC0150
S113029020830E94CB008CE70E94EA0080E00E9449
S11302A0EA0088E30E94EA0080E00E94EA0089E311
S11302B00E94EA0084E10E94EA008FE70E94EA00BB
S11302C080E50E94EA008CE60E94EA008CE00E942D
S11302D0EA0081E00E94EA000E94DE00DF91CF91F3
S11302E00895CF93DF93CDB7DEB76A970FB6F8942E
S11302F0DEBF0FBECDBF998F888F6A8F888D998D91
S11303000E9467059A83898380E1E0E0F1E0DE01E1
S1130310189601900D928A95E1F71C821B821E8229
S11303201D828A8D882359F08EE7888781E090E0CA
S11303309C838B8389819A8101969A8389831BC0CC
S1130340288D398D8D819E81820F931FFC01408100
S11303509E01285F3F4F8B819C81820F931FFC017C
S113036040838D819E8101969E838D838B819C81A8
S113037001969C838B832B813C8189819A812817E8
S11303803907F0F21F8216C080E00E9405018F81B8
S113039080680E9405018F81882F90E09E01285F6C
S11303A03F4F820F931FFC0180810E941C018F81AB
S11303B08F5F8F838F81803138F36A960FB6F894FC
S11303C0DEBF0FBECDBFDF91CF910895CF93DF93F2
S11303D0CDB7DEB76A970FB6F894DEBF0FBECDBFB8
S11303E0998F888F6A8F888D998D0E9467059A836B
S11303F0898380E1E0E0F1E0DE01189601900D923E
S11304008A95E1F71C821B821E821D828A8D8823B5
S113041049F081E090E09C838B8389819A810196E5
S11304209A8389831BC0288D398D8D819E81820F8B
S1130430931FFC0140819E01285F3F4F8B819C816B
S1130440820F931FFC0140838D819E8101969E83C0
S11304508D838B819C8101969C838B832B813C8132
S113046089819A8128173907F0F280E48F8318C0B4
S113047080E00E9405018F8180680E9405018F81C0
S1130480882F90E0805491099E01285F3F4F820F8E
S1130490931FFC0180810E941C018F818F5F8F83D9
S11304A08F81803528F36A960FB6F894DEBF0FBEAD
S11304B0CDBFDF91CF910895CF93DF93CDB7DEB752
S11304C0AD970FB6F894DEBF0FBECDBF9CA78BA728
S11304D06DA781E1E4E1F1E0DE01169601900D9251
S11304E08A95E1F781E1E4E1F1E0DE0157960190BC
S11304F00D928A95E1F78BA59CA50E9467058C83D4
S11305008DA50E9400038D8319820EC08981882FD6
S113051090E09E01295E3F4F820F931F23E2FC016E
S1130520208389818F5F898399818D81981770F3E6
S11305308DA5882F90E0292F2F938F9380E191E050
S1130540892F8F9380E191E08F93CE018896292F94
S11305502F938F930E9470050F900F900F900F9020
S11305600F900F901A8216C08A81882F90E02A81FA
S1130570222F30E04BA55CA5240F351FF9014081E3
S11305809E012A5F3F4F820F931FFC0140838A81A3
S11305908F5F8A839A818C81981730F38DE08B83E7
S11305A019C08B81882F90E02B81222F30E02D50B1
S11305B03109AE01485D5F4F240F351FF9014081B9
S11305C09E012A5F3F4F820F931FFC0140838B8162
S11305D08F5F8B838B81803120F3CE01069660E0A0
S11305E00E947101CE01479660E00E94E601AD963B
S11305F00FB6F894DEBF0FBECDBFDF91CF91089543
S1130600CF93DF931F92CDB7DEB789838981882F7B
S113061090E08031910509F44AC081319105CCF410
S11306208430910509F43BC0853091054CF4813048
S1130630910589F18230910581F1892B51F149C0ED
S11306408830910581F18C30910579F1069749F153
S113065040C08034910599F1813491054CF4803285
S1130660910549F18033910541F1489711F131C069
S11306708038910541F18138910524F48036910543
S113068001F127C0803C910501F18F3F9105F9F0FC
S113069020C081E01EC082E01CC083E01AC084E058
S11306A018C085E016C086E014C087E012C088E058
S11306B010C089E00EC08AE00CC08BE00AC08CE058
S11306C008C08DE006C08EE004C08FE002C080E167
S11306D000C00F90DF91CF910895CF93DF93CDB7F2
S11306E0DEB784E290E024E230E0F9012081286260
S11306F0FC01208385E290E025E230E0F9012081CD
S11307002F7DFC0120838CE490E02CE430E0F9019F
S113071020812365FC012083DF91CF910895CF933D
S1130720DF931F92CDB7DEB789838EE490E02981F1
S1130730FC01208300008DE490E0FC01808188238B
S1130740D4F70F90DF91CF910895CF93DF9300D02A
S113075000D000D0CDB7DEB79E838D8382E090E0D9
S11307609C838B831A8219820FC089819A812D817F
S11307703E81820F931FFC0180810E948F03898137
S11307809A8101969A83898329813A818B819C81FC
S11307902817390750F326960FB6F894DEBF0FBE1C
S11307A0CDBFDF91CF9108950F931F93CF93DF9324
S11307B0CDB7DEB72C970FB6F894DEBF0FBECDBF12
S11307C09A8389836B834C8381EC90E021EC30E045
S11307D0F90120812861FC01208305EC10E0898166
S11307E09A8196958795CC01A0E0B0E0805C9D4B02
S11307F0A04FBF4F29813A81990140E050E0BC01EC
S1130800CD010E944505DA01C9010197A109B10989
S1130810892F9A2FAB2FBB27F801808304EC10E0BB
S113082089819A8196958795CC01A0E0B0E0805C9F
S11308309D4BA04FBF4F29813A81990140E050E080
S1130840BC01CD010E944505DA01C9018150F801BE
S113085080838B81882F90E08130910579F08230FC
S11308609105F9F0892B39F582EC90E022EC30E027
S1130870F90120812F7CFC0120831DC082EC90E0D3
S113088022EC30E0F90120812062FC01208382EC1B
S113089090E022EC30E0F90120812F7EFC012083DE
S11308A00AC082EC90E022EC30E0F9012081206360
S11308B0FC01208300008C81882F90E08130910519
S11308C019F0029759F014C082EC90E022EC30E069
S11308D0F9012081277FFC0120830AC082EC90E08B
S11308E022EC30E0F90120812860FC012083000023
S11308F082EC90E022EC30E0F90120812660FC01DA
S113090020832C960FB6F894DEBF0FBECDBFDF91C7
S1130910CF911F910F910895CF93DF931F92CDB77D
S1130920DEB78983000080EC90E0FC018081882F91
S113093090E080729927892BB1F386EC90E02981AD
S1130940FC0120830F90DF91CF9108951F920F92A5
S113095000905F000F9211242F933F934F935F9366
S11309606F937F938F939F93AF93BF93EF93FF9373
S1130970CF93DF93CDB7DEB780E50E948C0486E287
S113098090E0FC018081882F90E081709927892B69
S113099019F586E290E0FC018081882F90E0827056
S11309A09927892B69F080913A018823A9F08091D5
S11309B03A01815080933A0183E40E948C040CC074
S11309C080913A01813140F480913A018F5F8093A4
S11309D03A0187E50E948C04DF91CF91FF91EF915A
S11309E0BF91AF919F918F917F916F915F914F9143
S11309F03F912F910F9000925F000F901F901895D8
S1130A00CF93DF93CDB7DEB763970FB6F894DEBF0D
S1130A100FBECDBF41E060E080E895E20E94D403C0
S1130A200E9453000E94AD000E94330188E690E0CA
S1130A3028E630E0F90120812260FC0120838CE665
S1130A4090E02CE630E0F90120812160FC01208354
S1130A5060E08AE00E946E0081E080933A0180E1C8
S1130A60EAE2F1E0DE01149601900D928A95E1F735
S1130A708CE0898385E291E09B838A8378948A81E0
S1130A809B8169810E945C02FACFA1E21A2EAA1B03
S1130A90BB1BFD010DC0AA1FBB1FEE1FFF1FA2172A
S1130AA0B307E407F50720F0A21BB30BE40BF50B27
S1130AB0661F771F881F991F1A9469F760957095B0
S1130AC0809590959B01AC01BD01CF010895FC0177
S1130AD001900020E9F7809590958E0F9F1F08954F
S1130AE0AEE0B0E0E6E7F5E00C941F080D891E893E
S1130AF086E08C831A8309838FEF9FE79E838D831F
S1130B00AE01475E5F4F6F89788DCE0101960E94DA
S1130B1093052F813885F801E20FF31F10822E967A
S1130B20E4E00C943B08ACE0B0E0E9E9F5E00C94B7
S1130B3011087C016B018A01FC01178216828381F2
S1130B4081FFBDC1CE0101964C01F7019381F601ED
S1130B5093FD859193FF81916F01882309F4ABC1C3
S1130B60853239F493FD859193FF81916F0185322C
S1130B7029F4B70190E00E947B07E7CF512C312C78
S1130B8020E02032A0F48B3269F030F4803259F046
S1130B90833269F420612CC08D3239F0803339F40A
S1130BA0216026C02260246023C0286021C027FD64
S1130BB027C030ED380F3A3078F426FF06C0FAE04B
S1130BC05F9E300D1124532E13C08AE0389E300DE1
S1130BD01124332E20620CC08E3221F426FD6BC109
S1130BE0206406C08C3611F4206802C0883641F4B3
S1130BF0F60193FD859193FF81916F018111C1CF1E
S1130C00982F9F7D9554933028F40C5F1F4FFFE37A
S1130C10F9830DC0833631F0833771F0833509F0E1
S1130C205BC022C0F801808189830E5F1F4F44247A
S1130C304394512C540115C03801F2E06F0E711C1D
S1130C40F801A080B18026FF03C0652D70E002C0CA
S1130C506FEF7FEFC5012C870E9470072C01830181
S1130C602C852F77222E17C03801F2E06F0E711CED
S1130C70F801A080B18026FF03C0652D70E002C09A
S1130C806FEF7FEFC5012C870E9465072C012C852F
S1130C902068222E830123FC1BC0832D90E048167C
S1130CA05906B0F4B70180E290E00E947B073A94C1
S1130CB0F4CFF50127FC859127FE81915F01B701EF
S1130CC090E00E947B0731103A94F1E04F1A5108EA
S1130CD04114510471F7E5C0843611F0893639F5B1
S1130CE0F80127FF07C060817181828193810C5FC5
S1130CF01F4F08C060817181072E000C880B990B6F
S1130D000E5F1F4F2F76722E97FF09C09095809526
S1130D10709561957F4F8F4F9F4F2068722E2AE008
S1130D2030E0A4010E94B307A82EA81844C0853758
S1130D3029F42F7EB22E2AE030E025C0F22FF97F6D
S1130D40BF2E8F36C1F018F4883579F0B4C08037DF
S1130D5019F0883721F0AFC02F2F2061B22EB4FED6
S1130D600DC08B2D8460B82E09C024FF0AC09F2FAC
S1130D709660B92E06C028E030E005C020E130E0DE
S1130D8002C020E132E0F801B7FE07C06081718142
S1130D90828193810C5F1F4F06C06081718180E066
S1130DA090E00E5F1F4FA4010E94B307A82EA8185D
S1130DB0FB2DFF777F2E76FE0BC0372D3E7FA514CB
S1130DC050F474FE0AC072FC08C0372D3E7E05C084
S1130DD0BA2C372D03C0BA2C01C0B52C34FF0DC07A
S1130DE0FE01EA0DF11D8081803311F4397E09C0C2
S1130DF032FF06C0B394B39404C0832F867809F0FD
S1130E00B39433FD13C030FF06C05A2CB31418F446
S1130E10530C5B18B32CB31468F4B70180E290E070
S1130E203C870E947B07B3943C85F5CFB31410F440
S1130E303B1801C0312C34FF12C0B70180E390E0AD
S1130E403C870E947B073C8532FF17C031FD03C0FD
S1130E5088E790E002C088E590E0B7010CC0832FDA
S1130E60867859F031FF02C08BE201C080E237FD81
S1130E708DE2B70190E00E947B07A51438F4B70116
S1130E8080E390E00E947B075A94F7CFAA94F40180
S1130E90EA0DF11D8081B70190E00E947B07A1104B
S1130EA0F5CF332009F451CEB70180E290E00E94DF
S1130EB07B073A94F6CFF7018681978102C08FEFC2
S1130EC09FEF2C96E2E10C942D08FC0105906150F3
S1130ED070400110D8F7809590958E0F9F1F08954C
S1130EE0FC016150704001900110D8F780959095F5
S1130EF08E0F9F1F08950F931F93CF93DF93FB01D2
S1130F00238121FD03C08FEF9FEF28C022FF16C06D
S1130F1046815781248135814217530744F4A081C7
S1130F20B1819D012F5F3F4F318320838C932681B4
S1130F3037812F5F3F4F3783268310C0EB01092F82
S1130F40182F0084F185E02D0995892BE1F68E8117
S1130F509F8101969F838E83812F902FDF91CF9164
S1130F601F910F910895FA01AA27283051F12031D9
S1130F7081F1E8946F936E7F6E5F7F4F8F4F9F4F29
S1130F80AF4FB1E03ED0B4E03CD0670F781F891F6B
S1130F909A1FA11D680F791F8A1F911DA11D6A0F39
S1130FA0711D811D911DA11D20D009F468943F91EC
S1130FB02AE0269F11243019305D3193DEF6CF01EB
S1130FC00895462F4770405D4193B3E00FD0C9F7B1
S1130FD0F6CF462F4F70405D4A3318F0495D31FD1E
S1130FE04052419302D0A9F7EACFB4E0A695979571
S1130FF0879577956795BA95C9F700976105710547
S113100008959B01AC010A2E069457954795379590
S11310102795BA95C9F7620F731F841F951FA01DEA
S113102008952F923F924F925F926F927F928F9288
S11310309F92AF92BF92CF92DF92EF92FF920F9363
S11310401F93CF93DF93CDB7DEB7CA1BDB0B0FB66D
S1131050F894DEBF0FBECDBF09942A88398848882A
S11310605F846E847D848C849B84AA84B984C884C0
S1131070DF80EE80FD800C811B81AA81B981CE0FB7
S1131080D11D0FB6F894DEBF0FBECDBFED0108959C
S1071090F894FFCFFE
S11310942020202020202020202020202020202048
S11310A425336400202020202020202020202020FC
S11310B4202020200042617373000001020406080A
S10D10C40C10182030406080C0FFBB
S9030000FC
