S0160000417564696F416D706C69666965722E7372656383
S11300000C9434000C9451000C9451000C947D0415
S11300100C94B3040C9451000C9451000C945100B2
S11300200C9451000C9451000C9451000C94FE0457
S11300300C9451000C9451000C9451000C945100F8
S11300400C9451000C9451000C9451000C945100E8
S11300500C9451000C9451000C9451000C945100D8
S11300600C9451000C94510011241FBECFEFD8E022
S1130070DEBFCDBF11E0A0E0B1E0E2EDF8E102C0E7
S113008005900D92AC3CB107D9F721E0ACECB1E09E
S113009001C01D92A83FB207E1F70E94A9050C9484
S11300A0670C0C940000CF93DF93CDB7DEB70E94AA
S11300B0A30384E290E024E230E0F9012081276088
S11300C0FC01208385E290E025E230E0F901208103
S11300D02760FC012083DF91CF910895CF93DF93B4
S11300E0CDB7DEB789EB90E029EB30E0F901208150
S11300F02C7FFC01208388EB90E02CE0FC01208322
S11301008CEB90E02CEB30E0F90120812460FC01C1
S11301102083DF91CF910895CF93DF93CDB7DEB7DE
S11301208CEB90E024EAFC01208300008CEB90E04F
S1130130FC0180818823D4F7DF91CF910895CF9378
S1130140DF93CDB7DEB78CEB90E024E9FC0120838C
S1130150DF91CF910895CF93DF931F92CDB7DEB790
S113016089838BEB90E02981FC0120838CEB90E068
S113017024E8FC01208300008CEB90E0FC018081EA
S11301808823D4F70F90DF91CF910895CF93DF9315
S11301901F92CDB7DEB789830E948C008CE70E9442
S11301A0AB0080E00E94AB0089810E94AB000E94FA
S11301B09F000F90DF91CF910895CF93DF931F920B
S11301C0CDB7DEB789830E948C008CE70E94AB0018
S11301D080E40E94AB0089810E94AB000E949F00D2
S11301E00F90DF91CF910895CF93DF93CDB7DEB712
S11301F08AE290E02AE230E0F90120812860FC01E3
S113020020838BE290E02BE230E0F901208128602A
S1130210FC0120830E948C008CE70E94AB0080E0EC
S11302200E94AB0088E30E94AB0080E00E94AB0018
S113023089E30E94AB0084E10E94AB008FE70E9437
S1130240AB0080E50E94AB008CE60E94AB008CE022
S11302500E94AB0081E00E94AB000E949F00DF91EE
S1130260CF910895CF93DF93CDB7DEB76A970FB6DA
S1130270F894DEBF0FBECDBF998F888F6A8F888DAB
S1130280998D0E9486099A83898380E1E8E1F1E0EF
S1130290DE01189601900D928A95E1F71C821B826B
S11302A01E821D828A8D882359F08EE3888781E01F
S11302B090E09C838B8389819A8101969A838983B8
S11302C01BC0288D398D8D819E81820F931FFC0167
S11302D040819E01285F3F4F8B819C81820F931F39
S11302E0FC0140838D819E8101969E838D838B8149
S11302F09C8101969C838B832B813C8189819A818B
S113030028173907F0F21F8216C080E00E94C60049
S11303108F8180680E94C6008F81882F90E09E01A3
S1130320285F3F4F820F931FFC0180810E94DD00F4
S11303308F818F5F8F838F81803138F36A960FB6F8
S1130340F894DEBF0FBECDBFDF91CF910895CF9358
S1130350DF93CDB7DEB76A970FB6F894DEBF0FBE52
S1130360CDBF998F888F6A8F888D998D0E94860959
S11303709A83898380E1E8E1F1E0DE011896019037
S11303800D928A95E1F71C821B821E821D828A8D42
S1130390882349F081E090E09C838B8389819A8152
S11303A001969A8389831BC0288D398D8D819E8106
S11303B0820F931FFC0140819E01285F3F4F8B8178
S11303C09C81820F931FFC0140838D819E81019645
S11303D09E838D838B819C8101969C838B832B814F
S11303E03C8189819A8128173907F0F280E48F8350
S11303F018C080E00E94C6008F8180680E94C600F9
S11304008F81882F90E0805491099E01285F3F4F8F
S1130410820F931FFC0180810E94DD008F818F5F1A
S11304208F838F81803528F36A960FB6F894DEBFE8
S11304300FBECDBFDF91CF910895CF93DF93CDB79A
S1130440DEB7AD970FB6F894DEBF0FBECDBF9CA745
S11304508BA76DA781E1ECE2F1E0DE011696019035
S11304600D928A95E1F781E1ECE2F1E0DE01579625
S113047001900D928A95E1F78BA59CA50E948609AF
S11304808C83198216C08981882F90E02981222FBC
S113049030E04BA55CA5240F351FF90140819E0176
S11304A02A5F3F4F820F931FFC01408389818F5F36
S11304B0898399818C81981730F38DA5882F90E0DA
S11304C0292F2F938F9388E291E0892F8F9388E2CD
S11304D091E08F93CE018896292F2F938F930E94BA
S11304E08F090F900F900F900F900F900F908DE049
S11304F08A8319C08A81882F90E02A81222F30E0D4
S11305002D503109AE01485D5F4F240F351FF901AD
S113051040819E012A5F3F4F820F931FFC0140835D
S11305208A818F5F8A838A81803120F38DA50E941E
S1130530C1028D831B820EC08B81882F90E09E01A7
S1130540295E3F4F820F931F23E2FC0120838B819E
S11305508F5F8B839B818D81981770F3CE010696F4
S113056060E00E943201CE01479660E00E94A7013C
S1130570AD960FB6F894DEBF0FBECDBFDF91CF911D
S11305800895CF93DF931F92CDB7DEB78983898116
S1130590882F90E08031910509F44AC0813191059A
S11305A0CCF48430910509F43BC0853091054CF4BA
S11305B08130910589F18230910581F1892B51F1C6
S11305C049C08830910581F18C30910579F1069705
S11305D049F140C08034910599F1813491054CF47E
S11305E08032910549F18033910541F1489711F129
S11305F031C08038910541F18138910524F4803669
S1130600910501F127C0803C910501F18F3F9105CF
S1130610F9F020C081E01EC082E01CC083E01AC053
S113062084E018C085E016C086E014C087E012C0DC
S113063088E010C089E00EC08AE00CC08BE00AC0DC
S11306408CE008C08DE006C08EE004C08FE002C0DC
S113065080E100C00F90DF91CF910895CF93DF9395
S1130660CDB7DEB7AA970FB6F894DEBF0FBECDBFE5
S113067098A78FA37AA769A781E1ECE2F1E0DE01F4
S1130680159601900D928A95E1F781E1ECE2F1E093
S1130690DE01569601900D928A95E1F78FA198A5F7
S11306A00E9486098B8389A59AA50E9486098C835A
S11306B0198216C08981882F90E02981222F30E089
S11306C04FA158A5240F351FF90140819E012B5FCE
S11306D03F4F820F931FFC01408389818F5F898381
S11306E099818B81981730F31A8216C08A81882FDA
S11306F090E02A81222F30E049A55AA5240F351F06
S1130700F90140819E012A5E3F4F820F931FFC0135
S113071040838A818F5F8A839A818C81981730F312
S1130720CE01059661E00E943201CE01469661E059
S11307300E94A701AA960FB6F894DEBF0FBECDBFE4
S1130740DF91CF910895CF93DF93CDB7DEB784E2E5
S113075090E024E230E0F90120812862FC0120834A
S113076085E290E025E230E0F90120812F7DFC0153
S113077020838CE490E02CE430E0F90120812365AF
S1130780FC012083DF91CF9108950F931F93CF93A2
S1130790DF93CDB7DEB72C970FB6F894DEBF0FBE4C
S11307A0CDBF9A8389836B834C8381EC90E021ECE9
S11307B030E0F90120812861FC01208305EC10E080
S11307C089819A8196958795CC01A0E0B0E0805C00
S11307D09D4BA04FBF4F29813A81990140E050E0E1
S11307E0BC01CD010E946409DA01C9010197A10984
S11307F0B109892F9A2FAB2FBB27F801808304EC12
S113080010E089819A8196958795CC01A0E0B0E0AB
S1130810805C9D4BA04FBF4F29813A81990140E0F4
S113082050E0BC01CD010E946409DA01C901815084
S1130830F80180838B81882F90E08130910579F0D5
S113084082309105F9F0892B39F582EC90E022ECA5
S113085030E0F90120812F7CFC0120831DC082EC53
S113086090E022EC30E0F90120812062FC01208339
S113087082EC90E022EC30E0F90120812F7EFC0133
S113088020830AC082EC90E022EC30E0F901208160
S11308902063FC01208300008C81882F90E081304C
S11308A0910519F0029759F014C082EC90E022EC03
S11308B030E0F9012081277FFC0120830AC082EC0B
S11308C090E022EC30E0F90120812860FC012083D3
S11308D0000082EC90E022EC30E0F90120812660F7
S11308E0FC0120832C960FB6F894DEBF0FBECDBF5B
S11308F0DF91CF911F910F9108951F920F92009055
S11309005F000F9211242F933F934F935F936F9344
S11309107F938F939F93AF93BF93EF93FF93CF9363
S1130920DF93CDB7DEB783E290E0FC0180818823BA
S113093034F00E944C0860E080E00E94AF06DF9132
S1130940CF91FF91EF91BF91AF919F918F917F9143
S11309506F915F914F913F912F910F9000925F00A3
S11309600F901F9018951F920F9200905F000F92A6
S113097011242F933F934F935F936F937F938F93A0
S11309809F93AF93BF93EF93FF93CF93DF93CDB731
S1130990DEB786E290E0FC018081882F90E08170D0
S11309A09927892BB9F486E290E0FC018081882F95
S11309B090E082709927892B39F00E944C0860E0FE
S11309C081E00E94AF0606C00E944C0861E081E00D
S11309D00E94AF06DF91CF91FF91EF91BF91AF914C
S11309E09F918F917F916F915F914F913F912F9143
S11309F00F9000925F000F901F9018951F920F9216
S1130A0000905F000F9211242F933F934F935F93B5
S1130A106F937F938F939F93AF93BF93EF93FF93C2
S1130A20CF93DF93CDB7DEB78091CE018F5F8093F4
S1130A30CE018091CE018A3049F48091D601882379
S1130A4029F481E08093CD011092CE0180911501AB
S1130A50882369F0809116018F5F8093160180913D
S1130A601601843121F4109215011092160180911F
S1130A70D0019091D10101969093D1018093D0013E
S1130A808091D0019091D101843F914059F480919B
S1130A901501882339F481E08093CF011092D101AC
S1130AA01092D0018091D601882311F18091D70151
S1130AB09091D80101969093D8018093D7018091A9
S1130AC0D7019091D8018436910579F5809115016B
S1130AD0882359F51092D8011092D7010E94BD08BD
S1130AE01092CC0181E0809317011092D2011DC0B5
S1130AF08091D7019091D80101969093D801809369
S1130B00D7018091D7019091D801883E934069F430
S1130B1080911501882349F481E08093D6011092D5
S1130B20D8011092D7011092CD01DF91CF91FF919E
S1130B30EF91BF91AF919F918F917F916F915F9151
S1130B404F913F912F910F9000925F000F901F9053
S1130B501895CF93DF93CDB7DEB741E060E080E82E
S1130B6095E20E94C5030E9453000E946E000E94F9
S1130B70F4000E9427080E9465080E9487088DE3FC
S1130B8091E09093DB018093DA0184E491E0909307
S1130B90DD018093DC0189E491E09093DF0180938F
S1130BA0DE0183E591E09093E1018093E0018AE521
S1130BB091E09093E3018093E20185E691E09093C4
S1130BC0E5018093E40181E791E09093E70180934C
S1130BD0E6018EE791E09093E9018093E80186E8CD
S1130BE091E09093EB018093EA018DE891E090937A
S1130BF0ED018093EC0180E991E09093EF01809303
S1130C00EE0187E991E09093F1018093F00183EA8A
S1130C1091E09093F3018093F2018CEA91E0909338
S1130C20F5018093F4018DE891E09093F7018093AE
S1130C30F60178948091CD01882321F00E943A0630
S1130C401092CD0180911501882351F08091040107
S1130C50882F90E08B5F9E4FFC0180810E94AE083C
S1130C608091CF01882329F080E00E94AE08109281
S1130C70CF01E0CFCF93DF93CDB7DEB780911701DB
S1130C808823E9F08091CC01882F90E080509F4F19
S1130C90FC018081882F90E08B5F9E4FFC012081B6
S1130CA08091CC01882F90E0880F991F86529E4F27
S1130CB0FC0180819181622F0E941D0239C08091C4
S1130CC0D5018823D9F08091D401882F90E0019632
S1130CD0880F991F82519E4FFC01208131818091A0
S1130CE0D401882F90E0880F991F82519E4FFC01F8
S1130CF080819181B9010E942E031AC08091D30191
S1130D00882F90E00196880F991F8C519E4FFC010B
S1130D10208131818091D301882F90E0880F991F21
S1130D208C519E4FFC0180819181B9010E942E0358
S1130D308091CC01843081F48091CC01882F90E0A3
S1130D4080509F4FFC018081882F90E08B5F9E4FE5
S1130D50FC0180810E94AE08DF91CF910895CF936A
S1130D60DF9300D01F92CDB7DEB78A836B838A816D
S1130D70882309F4EEC08B81882309F475C080911F
S1130D80D201882309F456C08091D501882349F102
S1130D90809117018823D1F08091CC01882F90E0B5
S1130DA080509F4FFC0180818F3008F04AC18091B0
S1130DB0CC01882F90E09C0120503F4FF901208105
S1130DC02F5F80509F4FFC0120833BC18091D40151
S1130DD0833008F036C18091D4018F5F8093D401B1
S1130DE030C1809117018823D1F08091CC01882FE4
S1130DF090E080509F4FFC0180818F3008F021C12A
S1130E008091CC01882F90E09C0120503F4FF90144
S1130E1020812F5F80509F4FFC01208312C180915D
S1130E20D301833008F00DC18091D3018F5F80938B
S1130E30D30107C18091CC01882F90E080509F4F4F
S1130E40FC0180818F3008F0FCC08091CC01882F98
S1130E5090E09C0120503F4FF90120812F5F80508A
S1130E609F4FFC012083EDC08091D201882309F4B7
S1130E7056C08091D501882349F1809117018823B8
S1130E80D1F08091CC01882F90E080509F4FFC01DD
S1130E908081882309F4D5C08091CC01882F90E00B
S1130EA09C0120503F4FF9012081215080509F4FD9
S1130EB0FC012083C6C08091D401882309F4C1C0F9
S1130EC08091D40181508093D401BBC080911701DB
S1130ED08823D1F08091CC01882F90E080509F4FDF
S1130EE0FC018081882309F4ACC08091CC01882F57
S1130EF090E09C0120503F4FF90120812150805007
S1130F009F4FFC0120839DC08091D301882309F465
S1130F1098C08091D30181508093D30192C0809175
S1130F20CC01882F90E080509F4FFC018081882362
S1130F3009F487C08091CC01882F90E09C01205057
S1130F403F4FF9012081215080509F4FFC012083A5
S1130F5078C08091D201882309F470C08091D501B2
S1130F60882369F18091D401833029F41092D5014A
S1130F701092D40166C080911701882319F0109251
S1130F8017015FC081E0809317018091D401882FFD
S1130F9090E08130910551F08230910559F0892B10
S1130FA009F04FC081E08093CC0108C082E08093B7
S1130FB0CC0104C083E08093CC01000042C0809146
S1130FC01701882319F0109217013BC08091D301B7
S1130FD0882F90E08130910581F0823091051CF4D6
S1130FE0892B39F02EC08230910571F00397E9F016
S1130FF028C081E08093D50120C081E0809317014F
S113100084E08093CC0119C019820BC08981882F98
S113101090E080509F4F27E0FC01208389818F5FFF
S113102089838981853090F308C01092D20110928F
S1131030CC0181E080931701000003C081E080931C
S1131040D2010F900F900F90DF91CF910895CF931D
S1131050DF93CDB7DEB784E890E0FC011182108203
S113106088E890E020E23EE4FC01318320838FE6AF
S113107090E02FE630E0F90120812260FC0120831A
S113108081E890E021E830E0F90120812A60FC0148
S11310902083DF91CF910895CF93DF93CDB7DEB74F
S11310A081E080931501109216011092D1011092E3
S11310B0D0011092D8011092D7011092D60181E08C
S11310C08093CD01DF91CF910895CF93DF93CDB776
S11310D0DEB788E690E028E630E0F901208123605D
S11310E0FC0120838CE690E02CE630E0F9012081BD
S11310F02160FC0120838BE690E02BE630E0F901CF
S113110020812068FC012083DF91CF910895CF9343
S1131110DF93CDB7DEB78AE290E02AE230E0F9014E
S113112020812860FC01208380EB90E020EB30E0FC
S1131130F90120812362FC01208381EB90E021EB03
S113114030E0F90120812160FC01208384EB90E0F0
S11311502FEFFC012083DF91CF910895CF93DF938C
S11311601F92CDB7DEB7898384EB90E02981FC011F
S113117020830F90DF91CF9108950F931F93CF9306
S1131180DF93CDB7DEB7ED970FB6F894DEBF0FBE91
S1131190CDBF81E1E3EBF1E0DE01139601900D9206
S11311A08A95E1F788E0E4ECF1E0DE0154960190E1
S11311B00D928A95E1F719821A828091D9018A30B9
S11311C028F08091D9018A50898303C08091D90184
S11311D089831AC08981882F90E02A81222F30E0E8
S11311E0AE014C5E5F4F240F351FF90140819E0113
S11311F02D5F3F4F820F931FFC0140838A818F5FD5
S11312008A8389818F5F89838981082F10E0CE01C9
S113121044960E9486099C018091D901882F90E010
S1131220820F931F08171907A8F28091D9018A30F9
S1131230C8F48091D9018F5F8093D901CE010396C0
S113124060E00E94320181E1E3EBF1E0DE015C96B3
S113125001900D928A95E1F7CE014C9660E00E94D0
S1131260A70127C08091D9018A30E8F08091D90183
S11312708431C8F48091D9018F5F8093D90181E1D1
S1131280E3EBF1E0DE019D9601900D928A95E1F782
S1131290CE018D9660E00E943201CE01039660E09B
S11312A00E94A70106C08091D901843111F41092E3
S11312B0D901ED960FB6F894DEBF0FBECDBFDF9116
S11312C0CF911F910F910895A1E21A2EAA1BBB1B67
S11312D0FD010DC0AA1FBB1FEE1FFF1FA217B307FE
S11312E0E407F50720F0A21BB30BE40BF50B661F14
S11312F0771F881F991F1A9469F7609570958095D8
S113130090959B01AC01BD01CF010895FC010190B2
S11313100020E9F7809590958E0F9F1F0895AEE009
S1131320B0E0E5E9F9E00C943E0C0D891E8986E0F5
S11313308C831A8309838FEF9FE79E838D83AE018D
S1131340475E5F4F6F89788DCE0101960E94B20986
S11313502F813885F801E20FF31F10822E96E4E006
S11313600C945A0CACE0B0E0E8EBF9E00C94300CCF
S11313707C016B018A01FC0117821682838181FF43
S1131380BDC1CE0101964C01F7019381F60193FD95
S1131390859193FF81916F01882309F4ABC1853254
S11313A039F493FD859193FF81916F01853229F47E
S11313B0B70190E00E949A0BE7CF512C312C20E02A
S11313C02032A0F48B3269F030F4803259F0833249
S11313D069F420612CC08D3239F0803339F42160F6
S11313E026C02260246023C0286021C027FD27C0B6
S11313F030ED380F3A3078F426FF06C0FAE05F9EED
S1131400300D1124532E13C08AE0389E300D112460
S1131410332E20620CC08E3221F426FD6BC1206471
S113142006C08C3611F4206802C0883641F4F601F7
S113143093FD859193FF81916F018111C1CF982F05
S11314409F7D9554933028F40C5F1F4FFFE3F9837D
S11314500DC0833631F0833771F0833509F05BC0FA
S113146022C0F801808189830E5F1F4F4424439476
S1131470512C540115C03801F2E06F0E711CF801B3
S1131480A080B18026FF03C0652D70E002C06FEF1D
S11314907FEFC5012C870E948F0B2C0183012C85C3
S11314A02F77222E17C03801F2E06F0E711CF8015D
S11314B0A080B18026FF03C0652D70E002C06FEFED
S11314C07FEFC5012C870E94840B2C012C8520689A
S11314D0222E830123FC1BC0832D90E0481659065D
S11314E0B0F4B70180E290E00E949A0B3A94F4CFF2
S11314F0F50127FC859127FE81915F01B70190E0FA
S11315000E949A0B31103A94F1E04F1A5108411499
S1131510510471F7E5C0843611F0893639F5F801C4
S113152027FF07C060817181828193810C5F1F4F07
S113153008C060817181072E000C880B990B0E5F27
S11315401F4F2F76722E97FF09C090958095709546
S113155061957F4F8F4F9F4F2068722E2AE030E0B5
S1131560A4010E94D20BA82EA81844C0853729F4E0
S11315702F7EB22E2AE030E025C0F22FF97FBF2E55
S11315808F36C1F018F4883579F0B4C0803719F07B
S1131590883721F0AFC02F2F2061B22EB4FE0DC0CA
S11315A08B2D8460B82E09C024FF0AC09F2F96603B
S11315B0B92E06C028E030E005C020E130E002C0CA
S11315C020E132E0F801B7FE07C0608171818281B9
S11315D093810C5F1F4F06C06081718180E090E0B1
S11315E00E5F1F4FA4010E94D20BA82EA818FB2D3A
S11315F0FF777F2E76FE0BC0372D3E7FA51450F467
S113160074FE0AC072FC08C0372D3E7E05C0BA2C99
S1131610372D03C0BA2C01C0B52C34FF0DC0FE0118
S1131620EA0DF11D8081803311F4397E09C032FF47
S113163006C0B394B39404C0832F867809F0B3949E
S113164033FD13C030FF06C05A2CB31418F4530CE6
S11316505B18B32CB31468F4B70180E290E03C87C4
S11316600E949A0BB3943C85F5CFB31410F43B1845
S113167001C0312C34FF12C0B70180E390E03C87F5
S11316800E949A0B3C8532FF17C031FD03C088E7E6
S113169090E002C088E590E0B7010CC0832F867803
S11316A059F031FF02C08BE201C080E237FD8DE2C8
S11316B0B70190E00E949A0BA51438F4B70180E3B7
S11316C090E00E949A0B5A94F7CFAA94F401EA0D81
S11316D0F11D8081B70190E00E949A0BA110F5CF13
S11316E0332009F451CEB70180E290E00E949A0BB6
S11316F03A94F6CFF7018681978102C08FEF9FEF6E
S11317002C96E2E10C944C0CFC0105906150704065
S11317100110D8F7809590958E0F9F1F0895FC01B6
S11317206150704001900110D8F7809590958E0F0C
S11317309F1F08950F931F93CF93DF93FB01238182
S113174021FD03C08FEF9FEF28C022FF16C0468102
S11317505781248135814217530744F4A081B18114
S11317609D012F5F3F4F318320838C9326813781E6
S11317702F5F3F4F3783268310C0EB01092F182FAB
S11317800084F185E02D0995892BE1F68E819F81F6
S113179001969F838E83812F902FDF91CF911F918C
S11317A00F910895FA01AA27283051F1203181F1CF
S11317B0E8946F936E7F6E5F7F4F8F4F9F4FAF4F55
S11317C0B1E03ED0B4E03CD0670F781F891F9A1F68
S11317D0A11D680F791F8A1F911DA11D6A0F711D1C
S11317E0811D911DA11D20D009F468943F912AE028
S11317F0269F11243019305D3193DEF6CF01089510
S1131800462F4770405D4193B3E00FD0C9F7F6CF40
S1131810462F4F70405D4A3318F0495D31FD405208
S1131820419302D0A9F7EACFB4E0A695979587959E
S113183077956795BA95C9F700976105710508957D
S11318409B01AC010A2E0694579547953795279529
S1131850BA95C9F7620F731F841F951FA01D0895C1
S11318602F923F924F925F926F927F928F929F92AC
S1131870AF92BF92CF92DF92EF92FF920F931F939A
S1131880CF93DF93CDB7DEB7CA1BDB0B0FB6F8944B
S1131890DEBF0FBECDBF09942A88398848885F848B
S11318A06E847D848C849B84AA84B984C884DF80FC
S11318B0EE80FD800C811B81AA81B981CE0FD11DE0
S11318C00FB6F894DEBF0FBECDBFED010895F894B6
S10518D0FFCF44
S11318D2070707070F0001020406080C101820303E
S11318E2406080C0FF010101202020202020202010
S11318F220202020202020202533640020202020A6
S113190220202020202020202020202000566F6C20
S1131912756D650042617373004D69642D72616E69
S1131922676500547265626C650042726967687427
S11319326E65737300312E457175616C697A6572D7
S113194200322E4272696768746E65737300332EB7
S1131952526573657400342E457869740020200042
S1131962312E4261737300322E4D69642D72616EA1
S1131972676500332E547265626C6500342E4261D1
S1131982636B0020202020202020202020202020E3
S10F19922020200074282D5F2D742900F3
S9030000FC
