S0160000417564696F416D706C69666965722E7372656383
S11300000C9434000C9451000C9451000C947D0415
S11300100C94B3040C9451000C9451000C945100B2
S11300200C9451000C9451000C9451000C94FE0457
S11300300C9451000C9451000C9451000C945100F8
S11300400C9451000C9451000C9451000C945100E8
S11300500C9451000C9451000C9451000C945100D8
S11300600C9451000C94510011241FBECFEFD8E022
S1130070DEBFCDBF11E0A0E0B1E0E0E3F6E102C0F5
S113008005900D92AC37B107D9F721E0ACE7B1E0A8
S113009001C01D92A43AB207E1F70E944F050C94E7
S11300A0160B0C940000CF93DF93CDB7DEB70E94FC
S11300B0A30384E290E024E230E0F9012081276088
S11300C0FC01208385E290E025E230E0F901208103
S11300D02760FC012083DF91CF910895CF93DF93B4
S11300E0CDB7DEB789EB90E029EB30E0F901208150
S11300F02C7FFC01208388EB90E02CE0FC01208322
S11301008CEB90E02CEB30E0F90120812460FC01C1
S11301102083DF91CF910895CF93DF93CDB7DEB7DE
S11301208CEB90E024EAFC01208300008CEB90E04F
S1130130FC0180818823D4F7DF91CF910895CF9378
S1130140DF93CDB7DEB78CEB90E024E9FC0120838C
S1130150DF91CF910895CF93DF931F92CDB7DEB790
S113016089838BEB90E02981FC0120838CEB90E068
S113017024E8FC01208300008CEB90E0FC018081EA
S11301808823D4F70F90DF91CF910895CF93DF9315
S11301901F92CDB7DEB789830E948C008CE70E9442
S11301A0AB0080E00E94AB0089810E94AB000E94FA
S11301B09F000F90DF91CF910895CF93DF931F920B
S11301C0CDB7DEB789830E948C008CE70E94AB0018
S11301D080E40E94AB0089810E94AB000E949F00D2
S11301E00F90DF91CF910895CF93DF93CDB7DEB712
S11301F08AE290E02AE230E0F90120812860FC01E3
S113020020838BE290E02BE230E0F901208128602A
S1130210FC0120830E948C008CE70E94AB0080E0EC
S11302200E94AB0088E30E94AB0080E00E94AB0018
S113023089E30E94AB0084E10E94AB008FE70E9437
S1130240AB0080E50E94AB008CE60E94AB008CE022
S11302500E94AB0081E00E94AB000E949F00DF91EE
S1130260CF910895CF93DF93CDB7DEB76A970FB6DA
S1130270F894DEBF0FBECDBF998F888F6A8F888DAB
S1130280998D0E9435089A83898380E1E8E1F1E041
S1130290DE01189601900D928A95E1F71C821B826B
S11302A01E821D828A8D882359F08EE7888781E01B
S11302B090E09C838B8389819A8101969A838983B8
S11302C01BC0288D398D8D819E81820F931FFC0167
S11302D040819E01285F3F4F8B819C81820F931F39
S11302E0FC0140838D819E8101969E838D838B8149
S11302F09C8101969C838B832B813C8189819A818B
S113030028173907F0F21F8216C080E00E94C60049
S11303108F8180680E94C6008F81882F90E09E01A3
S1130320285F3F4F820F931FFC0180810E94DD00F4
S11303308F818F5F8F838F81803138F36A960FB6F8
S1130340F894DEBF0FBECDBFDF91CF910895CF9358
S1130350DF93CDB7DEB76A970FB6F894DEBF0FBE52
S1130360CDBF998F888F6A8F888D998D0E943508AB
S11303709A83898380E1E8E1F1E0DE011896019037
S11303800D928A95E1F71C821B821E821D828A8D42
S1130390882349F081E090E09C838B8389819A8152
S11303A001969A8389831BC0288D398D8D819E8106
S11303B0820F931FFC0140819E01285F3F4F8B8178
S11303C09C81820F931FFC0140838D819E81019645
S11303D09E838D838B819C8101969C838B832B814F
S11303E03C8189819A8128173907F0F280E48F8350
S11303F018C080E00E94C6008F8180680E94C600F9
S11304008F81882F90E0805491099E01285F3F4F8F
S1130410820F931FFC0180810E94DD008F818F5F1A
S11304208F838F81803528F36A960FB6F894DEBFE8
S11304300FBECDBFDF91CF910895CF93DF93CDB79A
S1130440DEB7AD970FB6F894DEBF0FBECDBF9CA745
S11304508BA76DA781E1ECE2F1E0DE011696019035
S11304600D928A95E1F781E1ECE2F1E0DE01579625
S113047001900D928A95E1F78BA59CA50E94350801
S11304808C83198216C08981882F90E02981222FBC
S113049030E04BA55CA5240F351FF90140819E0176
S11304A02A5F3F4F820F931FFC01408389818F5F36
S11304B0898399818C81981730F38DA5882F90E0DA
S11304C0292F2F938F9388E291E0892F8F9388E2CD
S11304D091E08F93CE018896292F2F938F930E94BA
S11304E03E080F900F900F900F900F900F908DE09B
S11304F08A8319C08A81882F90E02A81222F30E0D4
S11305002D503109AE01485D5F4F240F351FF901AD
S113051040819E012A5F3F4F820F931FFC0140835D
S11305208A818F5F8A838A81803120F38DA50E941E
S1130530C1028D831B820EC08B81882F90E09E01A7
S1130540295E3F4F820F931F23E2FC0120838B819E
S11305508F5F8B839B818D81981770F3CE010696F4
S113056060E00E943201CE01479660E00E94A7013C
S1130570AD960FB6F894DEBF0FBECDBFDF91CF911D
S11305800895CF93DF931F92CDB7DEB78983898116
S1130590882F90E08031910509F44AC0813191059A
S11305A0CCF48430910509F43BC0853091054CF4BA
S11305B08130910589F18230910581F1892B51F1C6
S11305C049C08830910581F18C30910579F1069705
S11305D049F140C08034910599F1813491054CF47E
S11305E08032910549F18033910541F1489711F129
S11305F031C08038910541F18138910524F4803669
S1130600910501F127C0803C910501F18F3F9105CF
S1130610F9F020C081E01EC082E01CC083E01AC053
S113062084E018C085E016C086E014C087E012C0DC
S113063088E010C089E00EC08AE00CC08BE00AC0DC
S11306408CE008C08DE006C08EE004C08FE002C0DC
S113065080E100C00F90DF91CF910895CF93DF9395
S1130660CDB7DEB7AA970FB6F894DEBF0FBECDBFE5
S113067098A78FA37AA769A781E1ECE2F1E0DE01F4
S1130680159601900D928A95E1F781E1ECE2F1E093
S1130690DE01569601900D928A95E1F78FA198A5F7
S11306A00E9435088B8389A59AA50E9435088C83FE
S11306B0198216C08981882F90E02981222F30E089
S11306C04FA158A5240F351FF90140819E012B5FCE
S11306D03F4F820F931FFC01408389818F5F898381
S11306E099818B81981730F31A8216C08A81882FDA
S11306F090E02A81222F30E049A55AA5240F351F06
S1130700F90140819E012A5E3F4F820F931FFC0135
S113071040838A818F5F8A839A818C81981730F312
S1130720CE01059661E00E943201CE01469661E059
S11307300E94A701AA960FB6F894DEBF0FBECDBFE4
S1130740DF91CF910895CF93DF93CDB7DEB784E2E5
S113075090E024E230E0F90120812862FC0120834A
S113076085E290E025E230E0F90120812F7DFC0153
S113077020838CE490E02CE430E0F90120812365AF
S1130780FC012083DF91CF9108950F931F93CF93A2
S1130790DF93CDB7DEB72C970FB6F894DEBF0FBE4C
S11307A0CDBF9A8389836B834C8381EC90E021ECE9
S11307B030E0F90120812861FC01208305EC10E080
S11307C089819A8196958795CC01A0E0B0E0805C00
S11307D09D4BA04FBF4F29813A81990140E050E0E1
S11307E0BC01CD010E941308DA01C9010197A109D6
S11307F0B109892F9A2FAB2FBB27F801808304EC12
S113080010E089819A8196958795CC01A0E0B0E0AB
S1130810805C9D4BA04FBF4F29813A81990140E0F4
S113082050E0BC01CD010E941308DA01C9018150D6
S1130830F80180838B81882F90E08130910579F0D5
S113084082309105F9F0892B39F582EC90E022ECA5
S113085030E0F90120812F7CFC0120831DC082EC53
S113086090E022EC30E0F90120812062FC01208339
S113087082EC90E022EC30E0F90120812F7EFC0133
S113088020830AC082EC90E022EC30E0F901208160
S11308902063FC01208300008C81882F90E081304C
S11308A0910519F0029759F014C082EC90E022EC03
S11308B030E0F9012081277FFC0120830AC082EC0B
S11308C090E022EC30E0F90120812860FC012083D3
S11308D0000082EC90E022EC30E0F90120812660F7
S11308E0FC0120832C960FB6F894DEBF0FBECDBF5B
S11308F0DF91CF911F910F9108951F920F92009055
S11309005F000F9211242F933F934F935F936F9344
S11309107F938F939F93AF93BF93EF93FF93CF9363
S1130920DF93CDB7DEB783E290E0FC0180818823BA
S113093034F00E94E10760E080E00E944406DF9109
S1130940CF91FF91EF91BF91AF919F918F917F9143
S11309506F915F914F913F912F910F9000925F00A3
S11309600F901F9018951F920F9200905F000F92A6
S113097011242F933F934F935F936F937F938F93A0
S11309809F93AF93BF93EF93FF93CF93DF93CDB731
S1130990DEB786E290E0FC018081882F90E08170D0
S11309A09927892BB9F486E290E0FC018081882F95
S11309B090E082709927892B39F00E94E10760E06A
S11309C081E00E94440606C00E94E10761E081E0E4
S11309D00E944406DF91CF91FF91EF91BF91AF91B7
S11309E09F918F917F916F915F914F913F912F9143
S11309F00F9000925F000F901F9018951F920F9216
S1130A0000905F000F9211242F938F939F93CF93A5
S1130A10DF93CDB7DEB780917E018F5F80937E0137
S1130A2080917E018A3029F481E080937D011092C7
S1130A307E0180911501882361F08091160191E077
S1130A40980F90931601843121F41092150110929D
S1130A50160180918001909181010196909381010A
S1130A60809380018091800190918101843F914025
S1130A7059F480911501882339F481E080937F0132
S1130A801092810110928001DF91CF919F918F91FB
S1130A902F910F9000925F000F901F901895CF93A5
S1130AA0DF93CDB7DEB741E060E080E895E20E94D5
S1130AB0C5030E9453000E946E000E94F4000E942D
S1130AC0BC070E94F1078DE391E090938701809326
S1130AD0860184E491E0909389018093880189E4FC
S1130AE091E090938B0180938A018DE491E090933F
S1130AF08D0180938C0184E591E090938F01809324
S1130B008E018FE591E0909391018093900184E5AB
S1130B1091E0909393018093920189E691E0909300
S1130B209501809394018FE691E0909397018093CF
S1130B30960184E791E0909399018093980184E46D
S1130B4091E090939B0180939A0189E491E09093C2
S1130B509D0180939C018DE491E090939F0180938B
S1130B609E0187E791E09093A1018093A00184E71F
S1130B7091E09093A3018093A201789480917D01E8
S1130B80882321F00E94E30510927D0180911501D4
S1130B90882349F08BE290E02BE230E0F9012081D8
S1130BA02860FC01208380917F01882359F08BE227
S1130BB090E02BE230E0F9012081277FFC012083C3
S1130BC010927F01DBCFCF93DF93CDB7DEB7809157
S1130BD017018823E9F080917C01882F90E08050F0
S1130BE09F4FFC018081882F90E08B5F9E4FFC011A
S1130BF0208180917C01882F90E0880F991F8A576B
S1130C009E4FFC0180819181622F0E941D0239C098
S1130C10809185018823D9F080918401882F90E008
S1130C200196880F991F86569E4FFC0120813181C1
S1130C3080918401882F90E0880F991F86569E4FDB
S1130C40FC0180819181B9010E942E031AC0809118
S1130C508301882F90E00196880F991F80579E4F3B
S1130C60FC012081318180918301882F90E0880FDD
S1130C70991F80579E4FFC0180819181B9010E9488
S1130C802E03DF91CF910895CF93DF9300D01F926D
S1130C90CDB7DEB78A836B838A81882309F4EEC0DB
S1130CA08B81882309F475C080918201882309F41B
S1130CB056C080918501882349F1809117018823CA
S1130CC0D1F080917C01882F90E080509F4FFC01EF
S1130CD080818F3008F04AC180917C01882F90E098
S1130CE09C0120503F4FF90120812F5F80509F4F7E
S1130CF0FC0120833BC180918401833008F036C11C
S1130D00809184018F5F8093840130C180911701A9
S1130D108823D1F080917C01882F90E080509F4FF0
S1130D20FC018081882309F421C180917C01882FF2
S1130D3090E09C0120503F4FF90120812F5F8050AB
S1130D409F4FFC01208312C180918301833008F0FE
S1130D500DC1809183018F5F8093830107C18091CE
S1130D607C01882F90E080509F4FFC0180818F3060
S1130D7008F0FCC080917C01882F90E09C012050F9
S1130D803F4FF90120812F5F80509F4FFC0120834A
S1130D90EDC080918201882309F456C080918501B9
S1130DA0882349F1809117018823D1F080917C0137
S1130DB0882F90E080509F4FFC018081882309F4A4
S1130DC0D5C080917C01882F90E09C0120503F4F3A
S1130DD0F9012081215080509F4FFC012083C6C01F
S1130DE080918401882309F4C1C0809184018150D9
S1130DF080938401BBC0809117018823D1F0809136
S1130E007C01882F90E080509F4FFC0180818823D3
S1130E1009F4ACC080917C01882F90E09C012050A3
S1130E203F4FF9012081215080509F4FFC012083C6
S1130E309DC080918301882309F498C08091830127
S1130E4081508093830192C080917C01882F90E02F
S1130E5080509F4FFC018081882309F487C08091D2
S1130E607C01882F90E09C0120503F4FF9012081A4
S1130E70215080509F4FFC01208378C080918201D3
S1130E80882309F470C080918501882369F18091D9
S1130E908401833029F4109285011092840166C084
S1130EA080911701882319F0109217015FC081E027
S1130EB08093170180918401882F90E081309105FF
S1130EC051F08230910559F0892B09F04FC081E02F
S1130ED080937C0108C082E080937C0104C083E09D
S1130EE080937C01000042C080911701882319F08F
S1130EF0109217013BC080918301882F90E08130CC
S1130F00910581F0823091051CF4892B39F02EC0B3
S1130F108230910571F00397E9F028C081E0809355
S1130F20850120C081E08093170184E080937C01D7
S1130F3019C019820BC08981882F90E080509F4F7F
S1130F4027E0FC01208389818F5F89838981853033
S1130F5090F308C01092820110927C0181E080938A
S1130F601701000003C081E0809382010F900F906D
S1130F700F90DF91CF910895CF93DF93CDB7DEB774
S1130F8084E890E0FC011182108288E890E020E27D
S1130F903EE4FC01318320838FE690E02FE630E0CD
S1130FA0F90120812260FC01208381E890E021E89E
S1130FB030E0F90120812A60FC012083DF91CF9188
S1130FC00895CF93DF93CDB7DEB781E08093150109
S1130FD0109216011092810110928001DF91CF913D
S1130FE00895CF93DF93CDB7DEB788E690E028E687
S1130FF030E0F90120812360FC0120838CE690E03D
S11310002CE630E0F90120812160FC0120838BE68D
S113101090E02BE630E0F90120812068FC01208378
S1131020DF91CF910895A1E21A2EAA1BBB1BFD01EB
S11310300DC0AA1FBB1FEE1FFF1FA217B307E407B3
S1131040F50720F0A21BB30BE40BF50B661F771F0B
S1131050881F991F1A9469F76095709580959095EB
S11310609B01AC01BD01CF010895FC01019000205A
S1131070E9F7809590958E0F9F1F0895AEE0B0E03C
S1131080E4E4F8E00C94ED0A0D891E8986E08C8373
S11310901A8309838FEF9FE79E838D83AE01475E9A
S11310A05F4F6F89788DCE0101960E9461082F8170
S11310B03885F801E20FF31F10822E96E4E00C94B9
S11310C0090BACE0B0E0E7E6F8E00C94DF0A7C0141
S11310D06B018A01FC0117821682838181FFBDC1E5
S11310E0CE0101964C01F7019381F60193FD8591A0
S11310F093FF81916F01882309F4ABC1853239F4E0
S113110093FD859193FF81916F01853229F4B70195
S113111090E00E94490AE7CF512C312C20E0203284
S1131120A0F48B3269F030F4803259F0833269F4E0
S113113020612CC08D3239F0803339F4216026C00F
S11311402260246023C0286021C027FD27C030ED21
S1131150380F3A3078F426FF06C0FAE05F9E300D6F
S11311601124532E13C08AE0389E300D1124332EDF
S113117020620CC08E3221F426FD6BC1206406C0AF
S11311808C3611F4206802C0883641F4F60193FDD0
S1131190859193FF81916F018111C1CF982F9F7D1C
S11311A09554933028F40C5F1F4FFFE3F9830DC06F
S11311B0833631F0833771F0833509F05BC022C088
S11311C0F801808189830E5F1F4F44244394512C7E
S11311D0540115C03801F2E06F0E711CF801A080B3
S11311E0B18026FF03C0652D70E002C06FEF7FEF72
S11311F0C5012C870E943E0A2C0183012C852F7780
S1131200222E17C03801F2E06F0E711CF801A08085
S1131210B18026FF03C0652D70E002C06FEF7FEF41
S1131220C5012C870E94330A2C012C852068222EAC
S1131230830123FC1BC0832D90E048165906B0F4AB
S1131240B70180E290E00E94490A3A94F4CFF50194
S113125027FC859127FE81915F01B70190E00E94F0
S1131260490A31103A94F1E04F1A510841145104DB
S113127071F7E5C0843611F0893639F5F80127FF96
S113128007C060817181828193810C5F1F4F08C008
S113129060817181072E000C880B990B0E5F1F4F24
S11312A02F76722E97FF09C0909580957095619561
S11312B07F4F8F4F9F4F2068722E2AE030E0A401A9
S11312C00E94810AA82EA81844C0853729F42F7ECD
S11312D0B22E2AE030E025C0F22FF97FBF2E8F36E0
S11312E0C1F018F4883579F0B4C0803719F0883724
S11312F021F0AFC02F2F2061B22EB4FE0DC08B2D74
S11313008460B82E09C024FF0AC09F2F9660B92EAE
S113131006C028E030E005C020E130E002C020E152
S113132032E0F801B7FE07C0608171818281938148
S11313300C5F1F4F06C06081718180E090E00E5FFA
S11313401F4FA4010E94810AA82EA818FB2DFF7725
S11313507F2E76FE0BC0372D3E7FA51450F474FE0D
S11313600AC072FC08C0372D3E7E05C0BA2C372D4A
S113137003C0BA2C01C0B52C34FF0DC0FE01EA0D28
S1131380F11D8081803311F4397E09C032FF06C01B
S1131390B394B39404C0832F867809F0B39433FDD7
S11313A013C030FF06C05A2CB31418F4530C5B1846
S11313B0B32CB31468F4B70180E290E03C870E9438
S11313C0490AB3943C85F5CFB31410F43B1801C01B
S11313D0312C34FF12C0B70180E390E03C870E94B7
S11313E0490A3C8532FF17C031FD03C088E790E00D
S11313F002C088E590E0B7010CC0832F867859F0CD
S113140031FF02C08BE201C080E237FD8DE2B701FB
S113141090E00E94490AA51438F4B70180E390E0F3
S11314200E94490A5A94F7CFAA94F401EA0DF11DD7
S11314308081B70190E00E94490AA110F5CF3320C2
S113144009F451CEB70180E290E00E94490A3A942F
S1131450F6CFF7018681978102C08FEF9FEF2C961C
S1131460E2E10C94FB0AFC0105906150704001100C
S1131470D8F7809590958E0F9F1F0895FC016150B9
S1131480704001900110D8F7809590958E0F9F1FA2
S113149008950F931F93CF93DF93FB01238121FDC5
S11314A003C08FEF9FEF28C022FF16C046815781EB
S11314B0248135814217530744F4A081B1819D01F1
S11314C02F5F3F4F318320838C93268137812F5F99
S11314D03F4F3783268310C0EB01092F182F008458
S11314E0F185E02D0995892BE1F68E819F81019686
S11314F09F838E83812F902FDF91CF911F910F9126
S11315000895FA01AA27283051F1203181F1E89495
S11315106F936E7F6E5F7F4F8F4F9F4FAF4FB1E0E2
S11315203ED0B4E03CD0670F781F891F9A1FA11DDD
S1131530680F791F8A1F911DA11D6A0F711D811DDE
S1131540911DA11D20D009F468943F912AE0269FA3
S113155011243019305D3193DEF6CF010895462F02
S11315604770405D4193B3E00FD0C9F7F6CF462FE3
S11315704F70405D4A3318F0495D31FD405241934C
S113158002D0A9F7EACFB4E0A69597958795779509
S11315906795BA95C9F700976105710508959B0190
S11315A0AC010A2E06945795479537952795BA9519
S11315B0C9F7620F731F841F951FA01D08952F92F2
S11315C03F924F925F926F927F928F929F92AF92CF
S11315D0BF92CF92DF92EF92FF920F931F93CF931C
S11315E0DF93CDB7DEB7CA1BDB0B0FB6F894DEBFB3
S11315F00FBECDBF09942A88398848885F846E84D9
S11316007D848C849B84AA84B984C884DF80EE8022
S1131610FD800C811B81AA81B981CE0FD11D0FB62B
S1131620F894DEBF0FBECDBFED010895F894FFCF4F
S113163007070707070001020406080C10182030EA
S1131640406080C0FF0101012020202020202020B4
S1131650202020202020202025336400202020204A
S113166020202020202020202020202000566F6CC5
S1131670756D650042617373004D69640054726551
S1131680626C65004272696768746E6573730045C5
S11316907175616C697A6572005265736574004591
S10F16A0786974002020004261636B0034
S9030000FC
