S0160000417564696F416D706C69666965722E7372656383
S11300000C9434000C9451000C9451000C94510045
S11300100C9451000C9451000C9451000C94510018
S11300200C9451000C9451000C9451000C94510008
S11300300C9451000C9451000C9451000C945100F8
S11300400C9451000C9451000C9451000C945100E8
S11300500C9451000C9451000C9451000C945100D8
S11300600C9451000C94510011241FBECFEFD8E022
S1130070DEBFCDBF11E0A0E0B1E0E6E6F2E002C0F1
S113008005900D92A030B107D9F721E0A0E0B1E0CE
S113009001C01D92A030B207E1F70E9400010C9448
S11300A031010C9400000E948D0084B1876084B9F2
S11300B085B1876085B908950F931F93CF93DF931C
S11300C000D0CDB7DEB795B101E010E002C0000F5B
S11300D0111F6A95E2F7202F2095922395B9198272
S11300E08A83CE0101960E949A0085B1082B05B936
S11300F00F900F90DF91CF911F910F910895E9EB2D
S1130100F0E080818C7F80838CE08093B800ECEBFE
S1130110F0E0808184608083089584B1886284B92A
S11301202D988CB583658CBD08958EBD0DB407FEE6
S1130130FDCF0895CF93DF93EC0188810E94950051
S113014089810E949500DF91CF910895CF93DF9329
S11301509C01C62FD42FE1ECF0E08081886180837C
S1130160B90176956795CB01A0E0B0E0BC01CD0163
S1130170605C7D4B804F9F4F40E050E00E940F0138
S1130180DA01C9010197A109B109892F9A2FAB2F6F
S1130190BB278093C50021502093C400C13051F087
S11301A018F0C23081F014C0E2ECF0E080818F7C62
S11301B080830EC0E2ECF0E08081806280838081E5
S11301C08F7E808305C0E2ECF0E0808180638083D1
S11301D0D13019F0D23039F00BC0E2ECF0E080817C
S11301E0877F808305C0E2ECF0E0808188608083B3
S11301F0E2ECF0E0808186608083DF91CF91089506
S113020041E060E080E895E20E94A6000E9453006D
S11302100E947F0060E08AE00E945C00FFCFA1E2C0
S11302201A2EAA1BBB1BFD010DC0AA1FBB1FEE1F6C
S1130230FF1FA217B307E407F50720F0A21BB30BB7
S1130240E40BF50B661F771F881F991F1A9469F733
S113025060957095809590959B01AC01BD01CF018F
S10902600895F894FFCF9D
S9030000FC
