S01300006932635F646973706C61792E73726563BE
S11300000C9434000C9449000C9449000C9449005D
S11300100C9449000C9449000C9449000C94490038
S11300200C9449000C9449000C9449000C94490028
S11300300C9449000C9449000C9449000C94490018
S11300400C9449000C9449000C9449000C94490008
S11300500C9449000C9449000C9449000C944900F8
S11300600C9449000C94490011241FBECFEFD8E032
S1130070DEBFCDBF11E0A0E0B1E0E6E6F3E002C0F0
S113008005900D92AE30B107D9F70E94FD000C9493
S1130090B1010C940000CF93DF93CDB7DEB789EBA9
S11300A090E029EB30E0F90120812C7FFC012083D2
S11300B088EB90E02CE0FC0120838CEB90E02CEBAF
S11300C030E0F90120812460FC012083DF91CF918D
S11300D00895CF93DF93CDB7DEB78CEB90E024EA9D
S11300E0FC01208300008CEB90E0FC0180818823DC
S11300F0D4F7DF91CF910895CF93DF93CDB7DEB7D7
S11301008CEB90E024E9FC012083DF91CF910895EA
S1130110CF93DF931F92CDB7DEB789838BEB90E04B
S11301202981FC0120838CEB90E024E8FC012083EE
S113013000008CEB90E0FC0180818823D4F70F90C1
S1130140DF91CF910895CF93DF931F92CDB7DEB7A0
S113015089830E9469008CE70E94880080E00E94E5
S1130160880089810E9488000E947C000F90DF91A2
S1130170CF910895CF93DF931F92CDB7DEB78983D4
S11301800E9469008CE70E94880080E40E94880035
S113019089810E9488000E947C000F90DF91CF919A
S11301A00895CF93DF93CDB7DEB70E9469008CE743
S11301B00E94880080E00E94880088E30E948800F2
S11301C080E00E94880089E30E94880084E10E9404
S11301D088008FE70E94880080E50E9488008CE6F2
S11301E00E9488008CE00E94880081E00E948800C0
S11301F00E947C00DF91CF910895CF93DF9300D0CC
S113020000D0CDB7DEB78AE290E02AE230E0F9010F
S113021020812860FC0120838BE290E02BE230E017
S1130220F90120812860FC0120830E944B000E9478
S1130230D10081E00E94A30080E091E09C838B8345
S1130240198215C080E00E94A300898180680E9401
S1130250A3008981882F90E02B813C81820F931F1A
S1130260FC0180810E94BA0089818F5F8983898122
S1130270803140F380E48A8317C080E00E94A300A9
S11302808A8180680E94A3008A81882F90E080542C
S113029091092B813C81820F931FFC0180810E9474
S11302A0BA008A818F5F8A838A81803530F364EF54
S11302B071E080E090E00E945E01C2CFCF93DF93B3
S11302C0CDB7DEB728970FB6F894DEBF0FBECDBF0B
S11302D06D837E838F8398872D813E814F815885DE
S11302E087ED91E0DC010E949701DC01CB01898359
S11302F09A83AB83BC8389819A81AB81BC8101974A
S1130300A109B10989839A83AB83BC8389819A81CA
S1130310AB81BC81892B8A2B8B2B69F728960FB66E
S1130320F894DEBF0FBECDBFDF91CF9108950E9438
S1130330A201A59F900DB49F900DA49F800D911DC7
S113034011240895A29FB001B39FC001A39F700D13
S1130350811D1124911DB29F700D811D1124911DC9
S10903600895F894FFCF9C
S111036648656A64862C204661727A616400E0
S9030000FC
