S00E0000546573745F332E73726563E4
S11300000C9434000C943E000C943E000C943E007E
S11300100C943E000C943E000C943E000C943E0064
S11300200C943E000C943E000C943E000C943E0054
S11300300C943E000C943E000C943E000C943E0044
S11300400C943E000C943E000C943E000C943E0034
S11300500C943E000C943E000C943E000C943E0024
S11300600C943E000C943E0011241FBECFEFD8E048
S1130070DEBFCDBF0E9440000C942F010C94000001
S1130080CF93DF9300D000D0CDB7DEB784E290E009
S113009024E230E0F90120812D62FC01208385E215
S11300A090E025E230E0F90120812560FC01208305
S11300B08CE490E02CE430E0F90120812365FC011C
S11300C020831A82198234C085E290E025E230E070
S11300D0F90120812E7FFC0120838EE490E0FC0155
S11300E0108200008DE490E0FC0180818823D4F725
S11300F08EE490E02981FC01208300008DE490E0EF
S1130100FC0180818823D4F785E290E025E230E089
S1130110F90120812160FC01208361E070E080E02E
S113012090E00E94DC0089819A8104969A838983F5
S113013089819A818F3F91053CF28FEF90E09C83F7
S11301408B8334C085E290E025E230E0F901208120
S11301502E7FFC0120838EE490E0FC0110820000DD
S11301608DE490E0FC0180818823D4F78EE490E054
S11301702B81FC01208300008DE490E0FC01808150
S11301808823D4F785E290E025E230E0F90120816C
S11301902160FC01208361E070E080E090E00E9437
S11301A0DC008B819C8104979C838B838B819C8155
S11301B0181619063CF285CFCF93DF93CDB7DEB77F
S11301C028970FB6F894DEBF0FBECDBF6D837E8334
S11301D08F8398872D813E814F81588587ED91E0EB
S11301E0DC010E941501DC01CB0189839A83AB8376
S11301F0BC8389819A81AB81BC810197A109B10932
S113020089839A83AB83BC8389819A81AB81BC81C6
S1130210892B8A2B8B2B69F728960FB6F894DEBFAF
S11302200FBECDBFDF91CF9108950E942001A59FFD
S1130230900DB49F900DA49F800D911D11240895DD
S1130240A29FB001B39FC001A39F700D811D112413
S1130250911DB29F700D811D1124911D0895F89474
S1050260FFCFCA
S9030000FC
