S01000004932435F546573742E7372656357
S11300000C9434000C943E000C943E000C943E007E
S11300100C943E000C943E000C943E000C943E0064
S11300200C943E000C943E000C943E000C943E0054
S11300300C943E000C943E000C943E000C943E0044
S11300400C943E000C943E000C943E000C943E0034
S11300500C943E000C943E000C943E000C943E0024
S11300600C943E000C943E0011241FBECFEFD8E048
S1130070DEBFCDBF0E9466000C94B9000C94000052
S1130080E9EBF0E080818C7F80838CE08093B80082
S1130090ECEBF0E0808184608083089584EA8093AF
S11300A0BC00ECEBF0E080818823ECF7089584E950
S11300B08093BC0008958093BB0084E88093BC00C7
S11300C0ECEBF0E080818823ECF70895539A5B9A77
S11300D00E9440000E944E008CE70E945B0080E07A
S11300E00E945B0088E30E945B0080E00E945B004A
S11300F089E30E945B0084E10E945B008FE70E9419
S11301005B0080E50E945B008CE60E945B008CE053
S11301100E945B0081E00E945B000E9457000E94E5
S11301204E008CE70E945B0080E00E945B0080E050
S11301300E945B000E9457000E944E008CE70E94C0
S11301405B0080E00E945B0080E80E945B000E94EC
S113015057000E944E008CE70E945B0080E40E94DE
S11301605B0088E40E945B000E94570080E090E0FE
S10901700895F894FFCF8E
S9030000FC
