S017000054657374696E675F50726F6A6563742E73726563F9
S11300000C9434000C9449000C9449000C9449005D
S11300100C9449000C9449000C9449000C94490038
S11300200C9449000C9449000C9449000C94490028
S11300300C9449000C9449000C9449000C94490018
S11300400C9449000C9449000C9449000C94490008
S11300500C9449000C9449000C9449000C944900F8
S11300600C9449000C94490011241FBECFEFD8E032
S1130070DEBFCDBF11E0A0E0B1E0ECE1F4E002C0EE
S113008005900D92A632B107D9F70E9484010C9411
S11300900C020C940000CF93DF93CDB7DEB789EB4D
S11300A090E029EB30E0F90120812C7FFC012083D2
S11300B088EB90E028E4FC0120838CEB90E02CEBAF
S11300C030E0F90120812460FC012083DF91CF918D
S11300D00895CF93DF93CDB7DEB78CEB90E024EA9D
S11300E0FC01208300008CEB90E0FC0180818823DC
S11300F0D4F7DF91CF910895CF93DF93CDB7DEB7D7
S11301008CEB90E024E9FC012083DF91CF910895EA
S1130110CF93DF931F92CDB7DEB789838BEB90E04B
S11301202981FC0120838CEB90E024E8FC012083EE
S113013000008CEB90E0FC0180818823D4F70F90C1
S1130140DF91CF910895CF93DF931F92CDB7DEB7A0
S113015089830E9469008CE70E94880080E00E94E5
S1130160880089810E9488000E947C000F90DF91A2
S1130170CF910895CF93DF931F92CDB7DEB78983D4
S11301800E9469008CE70E94880080E40E94880035
S113019089810E9488000E947C000F90DF91CF919A
S11301A00895CF93DF93CDB7DEB78AE290E02AE2D9
S11301B030E0F90120812860FC0120838BE290E08B
S11301C02BE230E0F90120812860FC0120830E94A9
S11301D069008CE70E94880080E00E94880088E320
S11301E00E94880080E00E94880089E30E948800C1
S11301F084E10E9488008FE70E94880080E50E94C5
S113020088008CE60E9488008CE00E94880081E0CF
S11302100E9488000E947C00DF91CF910895CF93C3
S1130220DF93CDB7DEB76A970FB6F894DEBF0FBE83
S1130230CDBF998F888F6A8F888D998D0E94030214
S11302409A83898380E1E0E0F1E0DE011896019071
S11302500D928A95E1F71C821B821E821D828A8D73
S1130260882359F08EE3888781E090E09C838B8318
S113027089819A8101969A8389831BC0288D398D3F
S11302808D819E81820F931FFC0140819E01285F16
S11302903F4F8B819C81820F931FFC0140838D8192
S11302A09E8101969E838D838B819C8101969C8384
S11302B08B832B813C8189819A8128173907F0F23D
S11302C01F8216C080E00E94A3008F8180680E9474
S11302D0A3008F81882F90E09E01285F3F4F820FFB
S11302E0931FFC0180810E94BA008F818F5F8F83EE
S11302F08F81803138F36A960FB6F894DEBF0FBE53
S1130300CDBFDF91CF910895CF93DF93CDB7DEB703
S113031028970FB6F894DEBF0FBECDBF0E944B00E6
S11303200E94D1006AE070E080E090E00E94B00199
S113033028E0CE010196FC01322F11923A95E9F79B
S113034088E4898385E48A838CE48B838CE48C83BE
S11303508FE48D8360E0CE0101960E940F01FFCFF0
S1130360CF93DF93CDB7DEB728970FB6F894DEBFEF
S11303700FBECDBF6D837E838F8398872D813E8191
S11303804F81588580EE91E0DC010E94E901DC0197
S1130390CB0189839A83AB83BC8389819A81AB81A6
S11303A0BC810197A109B10989839A83AB83BC837A
S11303B089819A81AB81BC81892B8A2B8B2B69F72C
S11303C028960FB6F894DEBF0FBECDBFDF91CF9154
S11303D008950E94F401A59F900DB49F900DA49FD1
S11303E0800D911D11240895A29FB001B39FC001F7
S11303F0A39F700D811D1124911DB29F700D811D4D
S11304001124911D0895FC0101900020E9F78095C5
S10F041090958E0F9F1F0895F894FFCF65
S113041C20202020202020202020202020202020CC
S113042C2533640020202020202020202020202080
S109043C20202020000036
S9030000FC
