S017000054657374696E675F50726F6A6563742E73726563F9
S11300000C9434000C943E000C943E000C943E007E
S11300100C943E000C943E000C943E000C943E0064
S11300200C943E000C943E000C943E000C943E0054
S11300300C943E000C943E000C943E000C943E0044
S11300400C943E000C943E000C943E000C943E0034
S11300500C943E000C943E000C943E000C943E0024
S11300600C943E000C943E0011241FBECFEFD8E048
S1130070DEBFCDBF0E9440000C94D7000C9400005A
S1130080CF93DF93CDB7DEB784E290E024E230E093
S1130090F90120812962FC01208385E290E025E2B8
S11300A030E0F90120812160FC0120838CE490E0A0
S11300B02CE430E0F90120812165FC01208385E2F4
S11300C090E025E230E0F90120812E7FFC012083BD
S11300D08EE490E024E2FC01208300008DE490E0B3
S11300E0FC0180818823D4F785E290E025E230E0AA
S11300F0F90120812160FC0120836CE271E080E041
S113010090E00E948400DBCFCF93DF93CDB7DEB7BE
S113011028970FB6F894DEBF0FBECDBF6D837E83E4
S11301208F8398872D813E814F81588580EE91E0A1
S1130130DC010E94BD00DC01CB0189839A83AB837F
S1130140BC8389819A81AB81BC810197A109B109E2
S113015089839A83AB83BC8389819A81AB81BC8177
S1130160892B8A2B8B2B69F728960FB6F894DEBF60
S11301700FBECDBFDF91CF9108950E94C800A59F07
S1130180900DB49F900DA49F800D911D112408958E
S1130190A29FB001B39FC001A39F700D811D1124C4
S11301A0911DB29F700D811D1124911D0895F89425
S10501B0FFCF7B
S9030000FC
