S017000054657374696E675F50726F6A6563742E73726563F9
S11300000C9434000C943E000C943E000C943E007E
S11300100C943E000C943E000C943E000C943E0064
S11300200C943E000C943E000C943E000C943E0054
S11300300C943E000C943E000C943E000C943E0044
S11300400C943E000C943E000C943E000C943E0034
S11300500C943E000C943E000C943E000C943E0024
S11300600C943E000C943E0011241FBECFEFD8E048
S1130070DEBFCDBF0E949B000C940D010C940000C8
S1130080CF93DF93CDB7DEB70E94A60084E290E061
S113009024E230E0F90120812760FC01208385E21D
S11300A090E025E230E0F90120812760FC01208303
S11300B0DF91CF910895CF93DF9300D000D0CDB7D7
S11300C0DEB78B836C8385E290E025E230E0F901B2
S11300D02081622F2C81422F50E021E030E002C0C9
S11300E0220F331F4A95E2F720952623FC01208333
S11300F080E289838B818A83CE0101960E94DE008F
S113010085E290E025E230E0F9012081622F2C8124
S1130110422F50E021E030E002C0220F331F4A9505
S1130120E2F7262BFC0120830F900F900F900F9085
S1130130DF91CF910895CF93DF93CDB7DEB70E94BF
S1130140400060E08AE00E945B00FFCFCF93DF9322
S1130150CDB7DEB784E290E024E230E0F9012081FB
S11301602862FC01208385E290E025E230E0F90179
S113017020812F7DFC0120838CE490E02CE430E08E
S1130180F90120812165FC012083DF91CF9108953D
S1130190CF93DF931F92CDB7DEB789838EE490E0CF
S11301A02981FC01208300008DE490E0FC01808122
S11301B08823D4F70F90DF91CF910895CF93DF93E5
S11301C000D000D000D0CDB7DEB79E838D8382E00F
S11301D090E09C838B831A8219820FC089819A8153
S11301E02D813E81820F931FFC0180810E94C800F3
S11301F089819A8101969A83898329813A818B81A5
S11302009C812817390750F326960FB6F894DEBF61
S11102100FBECDBFDF91CF910895F894FFCFBC
S9030000FC
