S017000054657374696E675F50726F6A6563742E73726563F9
S11300000C9434000C9449000C9449000C9449005D
S11300100C9449000C9449000C9449000C94490038
S11300200C9449000C9449000C9449000C94490028
S11300300C9449000C9449000C9449000C94490018
S11300400C9449000C9449000C9449000C94490008
S11300500C9449000C9449000C9449000C944900F8
S11300600C9449000C94490011241FBECFEFD8E032
S1130070DEBFCDBF11E0A0E0B1E0E8EDF1E002C0E9
S113008005900D92A030B107D9F70E94E1000C94BD
S1130090EA000C940000CF93DF93CDB7DEB789EB71
S11300A090E029EB30E0F90120812C7FFC012083D2
S11300B088EB90E02CE0FC0120838CEB90E02CEBAF
S11300C030E0F90120812460FC012083DF91CF918D
S11300D00895CF93DF93CDB7DEB78CEB90E024EA9D
S11300E0FC01208300008CEB90E0FC0180818823DC
S11300F0D4F7DF91CF910895CF93DF93CDB7DEB7D7
S11301008CEB90E024E9FC012083DF91CF910895EA
S1130110CF93DF931F92CDB7DEB789838BEB90E04B
S11301202981FC0120838CEB90E024E8FC012083EE
S113013000008CEB90E0FC0180818823D4F70F90C1
S1130140DF91CF910895CF93DF93CDB7DEB78AE2E5
S113015090E02AE230E0F90120812860FC0120834C
S11301608BE290E02BE230E0F90120812860FC0171
S113017020830E9469008CE70E94880080E00E942E
S1130180880088E30E94880080E00E94880089E358
S11301900E94880084E10E9488008FE70E94880002
S11301A080E50E9488008CE60E9488008CE00E9412
S11301B0880081E00E9488000E947C00DF91CF913A
S11301C00895CF93DF93CDB7DEB70E944B000E9412
S10B01D0A300FFCFF894FFCF58
S9030000FC
