S017000054657374696E675F50726F6A6563742E73726563F9
S11300000C9434000C943E000C943E000C943E007E
S11300100C943E000C943E000C943E000C943E0064
S11300200C943E000C943E000C943E000C943E0054
S11300300C943E000C943E000C943E000C943E0044
S11300400C943E000C943E000C943E000C943E0034
S11300500C943E000C943E000C943E000C943E0024
S11300600C943E000C943E0011241FBECFEFD8E048
S1130070DEBFCDBF0E949A000C949C010C9400003A
S1130080CF93DF93CDB7DEB70E94B30084E290E054
S113009024E230E0F90120812761FC01208385E21C
S11300A090E025E230E0F90120812761FC01208302
S11300B0DF91CF910895CF93DF9300D000D0CDB7D7
S11300C0DEB78B836C8385E290E025E230E0F901B2
S11300D02081622F2C81422F50E021E030E002C0C9
S11300E0220F331F4A95E2F720952623FC01208333
S11300F019828B818A83CE0101960E94EB0085E2EE
S113010090E025E230E0F9012081622F2C81422F1A
S113011050E021E030E002C0220F331F4A95E2F79D
S1130120262BFC0120830F900F900F900F90DF91EE
S1130130CF910895CF93DF93CDB7DEB70E944000EF
S113014062E08FEF0E945B0061E080E00E945B0050
S113015060E08AE50E945B006CE271E080E090E080
S11301600E944901EDCFCF93DF93CDB7DEB784E290
S113017090E024E230E0F90120812862FC01208330
S113018085E290E025E230E0F90120812F7DFC0139
S113019020838CE490E02CE430E0F9012081216597
S11301A0FC012083DF91CF910895CF93DF931F92B9
S11301B0CDB7DEB789838EE490E02981FC012083EA
S11301C000008DE490E0FC0180818823D4F70F9037
S11301D0DF91CF910895EF92FF920F931F93CF93E6
S11301E0DF93CDB7DEB72A970FB6F894DEBF0FBE04
S11301F0CDBF9A8789870DB71EB78DB79EB77C018F
S113020082E090E09C838B838B819C819C012150B4
S113021031093E832D832DB73EB7281B390B0FB60A
S1130220F8943EBF0FBE2DBF8DB79EB70196988739
S11302308F831A8219820FC089819A8129853A8510
S1130240820F931FFC0180810E94D50089819A81CD
S113025001969A83898329813A818B819C8128170D
S1130260390750F30FB6F894FEBE0FBEEDBE0FB6BD
S1130270F8941EBF0FBE0DBF2A960FB6F894DEBFCA
S11302800FBECDBFDF91CF911F910F91FF90EF90E3
S11302900895CF93DF93CDB7DEB728970FB6F894C0
S11302A0DEBF0FBECDBF6D837E838F8398872D8184
S11302B03E814F81588580EE91E0DC010E948201ED
S11302C0DC01CB0189839A83AB83BC8389819A81C6
S11302D0AB81BC810197A109B10989839A83AB835E
S11302E0BC8389819A81AB81BC81892B8A2B8B2B1E
S11302F069F728960FB6F894DEBF0FBECDBFDF9125
S1130300CF9108950E948D01A59F900DB49F900DEB
S1130310A49F800D911D11240895A29FB001B39F45
S1130320C001A39F700D811D1124911DB29F700DFA
S10F0330811D1124911D0895F894FFCF45
S9030000FC
