S00F00004156526D656E752E7372656377
S11300000C9434000C9451000C9451000C94ED01A8
S11300100C94A1010C9451000C9451000C945100C7
S11300200C9451000C9451000C9451000C94510008
S11300300C9451000C9451000C9451000C945100F8
S11300400C9451000C9451000C9451000C945100E8
S11300500C9451000C9451000C9451000C945100D8
S11300600C9451000C94510011241FBECFEFD8E022
S1130070DEBFCDBF11E0A0E0B1E0EAEBFCE002C0DE
S113008005900D92AE3CB107D9F722E0AEECB1E099
S113009001C01D92A430B207E1F70E9453000C94F2
S11300A05B060C94000087B18C7F87B9E8E6F0E02A
S11300B0808183608083ECE6F0E0808181608083CE
S11300C0EBE6F0E080818068808341E060E080E8D6
S11300D095E20E94E4027894E2EDF1E080E091E0A0
S11300E0918380836AE071E07383628343E151E02A
S11300F0558344832BE131E03783268381E291E009
S113010091878087ECEDF1E07183608353834283B0
S1130110358324839783868387E291E09187808760
S11301208FE291E09387828787E391E095878487C4
S11301308CE391E09787868721E431E0318B208B33
S113014026E431E0338B228B2AE431E0358B248B97
S1130150978B868B22E531E0318F208F29E531E0C2
S1130160338F228F23E631E0358F248F978F868F4C
S113017028E631E031A320A324E731E033A322A30E
S113018020E831E035A324A397A386A3FFCFCF9221
S1130190DF92EF92FF920F931F93CF93DF93CDB72C
S11301A0DEB7C759D1090FB6F894DEBF0FBECDBF75
S11301B08CE991E00E9446038091D0019091D10195
S11301C0FC01EE0FFF1FEE0FFF1FEE0FFF1FE452A7
S11301D0FE4FB68107812091CE013091CF012330AB
S11301E0310509F468C0FC01EE0FFF1FEE0FFF1F7D
S11301F0EE0FFF1FE452FE4FF480E58022303105FC
S113020009F469C0FC01EE0FFF1FEE0FFF1FEE0F94
S1130210FF1FE452FE4FD280C3802130310509F420
S11302206EC043E951E0FC01EE0FFF1FEE0FFF1F0C
S1130230EE0FFF1FE452FE4F1081A181232B29F002
S1130240E3E9F1E0BF019F0105C0E3E9F1E0BF018B
S11302502CE831E00F93BF935F934F93EF92FF929B
S11302607F936F93CF92DF92FF93EF93AF931F939C
S11302703F932F93880F991FFC01EE52FE4F81810B
S11302808F9380818F9384EA91E09F938F938CEA7C
S113029091E09F938F938E010F5F1F4F1F930F93D6
S11302A00E948303C8010E9446030FB6F894DEBF80
S11302B00FBECDBF36C0FC01EE0FFF1FEE0FFF1FB8
S11302C0EE0FFF1FE452FE4FF480E580D280C3801E
S11302D04CE851E0A8CFFC01EE0FFF1FEE0FFF1F0B
S11302E0EE0FFF1FE452FE4FD280C3801081A18124
S11302F0E3E9F1E06CE871E0AF019F01ABCFFC01F1
S1130300EE0FFF1FEE0FFF1FEE0FFF1FE452FE4F15
S11303101081A181ECE8F1E063E971E0AB019B019C
S113032099CFC956DF4F0FB6F894DEBF0FBECDBFCD
S1130330DF91CF911F910F91FF90EF90DF90CF90BD
S113034008951F920F920FB60F9211242F933F938B
S11303504F935F936F937F938F939F93AF93BF93C9
S1130360EF93FF93309928C0319B13C08091CE0145
S11303709091CF01009739F483E090E09093CF01FE
S11303808093CE0117C001979093CF018093CE0143
S113039011C08091CE019091CF018330910529F451
S11303A01092CF011092CE0105C001969093CF0117
S11303B08093CE010E94C700FF91EF91BF91AF914E
S11303C09F918F917F916F915F914F913F912F9169
S11303D00F900FBE0F901F9018951F920F920FB69B
S11303E00F9211242F933F934F935F936F937F93B7
S11303F08F939F93AF93BF93EF93FF931F99D3C0B2
S11304008091D0019091D1018230910509F46CC0A2
S113041034F4009761F0019709F446C0C2C08330F8
S1130420910509F481C0049709F49DC0BAC0809174
S1130430CE019091CF0181309105A9F01CF4892B54
S113044039F0AFC082309105C9F0039711F1A9C00A
S113045081E090E09093D1018093D0011092CF017C
S11304601092CE019EC082E090E09093D1018093DF
S1130470D0011092CF011092CE0193C083E090E09E
S11304809093D1018093D0011092CF011092CE01AC
S113049088C084E090E09093D1018093D0011092C1
S11304A0CF011092CE017DC08091CE019091CF01F9
S11304B08230910559F08330910569F0019709F074
S11304C070C01092CF011092CE016BC01092CF0178
S11304D01092CE0166C01092D1011092D0011092F8
S11304E0CF011092CE015DC08091CE019091CF01D9
S11304F08230910559F08330910569F0019709F034
S113050050C01092CF011092CE014BC01092CF0177
S11305101092CE0146C01092D1011092D0011092D7
S1130520CF011092CE013DC08091CE019091CF01B8
S11305308230910551F08330910561F0019789F57E
S11305401092CF011092CE012CC01092CF011092C4
S1130550CE0127C01092D1011092D0011092CF0188
S11305601092CE011EC08091CE019091CF018230B5
S1130570910551F08330910561F0019791F4109247
S1130580CF011092CE010DC01092CF011092CE0176
S113059008C01092D1011092D0011092CF01109294
S11305A0CE010E94C700FF91EF91BF91AF919F913F
S11305B08F917F916F915F914F913F912F910F9008
S11305C00FBE0F901F901895CF93DF939C01C62FF9
S11305D0D42FE1ECF0E0808188618083B9017695C5
S11305E06795CB01A0E0B0E0BC01CD01605C7D4B20
S11305F0804F9F4F40E050E00E946103DA01C9013F
S11306000197A109B109892F9A2FAB2FBB2780939A
S1130610C50021502093C400C13051F018F0C230FD
S113062081F014C0E2ECF0E080818F7C80830EC006
S1130630E2ECF0E080818062808380818F7E808321
S113064005C0E2ECF0E0808180638083D13019F052
S1130650D23039F00BC0E2ECF0E08081877F8083F8
S113066005C0E2ECF0E0808188608083E2ECF0E099
S1130670808186608083DF91CF910895E0ECF0E083
S1130680908195FFFDCF8093C60008950F931F932B
S1130690CF93DF93FC0101900020E9F73197E81B29
S11306A0F90B51F0EC018C010E0F1F1F89910E9470
S11306B03E03C017D107D1F7DF91CF911F910F915E
S11306C00895A1E21A2EAA1BBB1BFD010DC0AA1F8F
S11306D0BB1FEE1FFF1FA217B307E407F50720F0A7
S11306E0A21BB30BE40BF50B661F771F881F991F22
S11306F01A9469F760957095809590959B01AC016B
S1130700BD01CF010895AEE0B0E0E9E8F3E00C9458
S113071032060D891E8986E08C831A8309838FEF44
S11307209FE79E838D83AE01475E5F4F6F89788D0F
S1130730CE0101960E94A6032F813885F801E20FAD
S1130740F31F10822E96E4E00C944E06ACE0B0E069
S1130750ECEAF3E00C9424067C016B018A01FC01B1
S113076017821682838181FFBDC1CE0101964C019F
S1130770F7019381F60193FD859193FF81916F01B8
S1130780882309F4ABC1853239F493FD859193FF35
S113079081916F01853229F4B70190E00E948E05A2
S11307A0E7CF512C312C20E02032A0F48B3269F0B9
S11307B030F4803259F0833269F420612CC08D32D8
S11307C039F0803339F4216026C02260246023C0CC
S11307D0286021C027FD27C030ED380F3A3078F467
S11307E026FF06C0FAE05F9E300D1124532E13C07D
S11307F08AE0389E300D1124332E20620CC08E32D4
S113080021F426FD6BC1206406C08C3611F42068E7
S113081002C0883641F4F60193FD859193FF8191DE
S11308206F018111C1CF982F9F7D9554933028F487
S11308300C5F1F4FFFE3F9830DC0833631F083371C
S113084071F0833509F05BC022C0F801808189838F
S11308500E5F1F4F44244394512C540115C038019A
S1130860F2E06F0E711CF801A080B18026FF03C076
S1130870652D70E002C06FEF7FEFC5012C870E94E9
S113088083052C0183012C852F77222E17C0380174
S1130890F2E06F0E711CF801A080B18026FF03C046
S11308A0652D70E002C06FEF7FEFC5012C870E94B9
S11308B078052C012C852068222E830123FC1BC083
S11308C0832D90E048165906B0F4B70180E290E019
S11308D00E948E053A94F4CFF50127FC859127FEFA
S11308E081915F01B70190E00E948E0531103A9426
S11308F0F1E04F1A51084114510471F7E5C08436F0
S113090011F0893639F5F80127FF07C0608171813C
S1130910828193810C5F1F4F08C060817181072E13
S1130920000C880B990B0E5F1F4F2F76722E97FFCA
S113093009C090958095709561957F4F8F4F9F4F1B
S11309402068722E2AE030E0A4010E94C605A82E79
S1130950A81844C0853729F42F7EB22E2AE030E04F
S113096025C0F22FF97FBF2E8F36C1F018F48835D9
S113097079F0B4C0803719F0883721F0AFC02F2F39
S11309802061B22EB4FE0DC08B2D8460B82E09C038
S113099024FF0AC09F2F9660B92E06C028E030E0DD
S11309A005C020E130E002C020E132E0F801B7FEEA
S11309B007C060817181828193810C5F1F4F06C0E3
S11309C06081718180E090E00E5F1F4FA4010E945E
S11309D0C605A82EA818FB2DFF777F2E76FE0BC028
S11309E0372D3E7FA51450F474FE0AC072FC08C073
S11309F0372D3E7E05C0BA2C372D03C0BA2C01C05A
S1130A00B52C34FF0DC0FE01EA0DF11D8081803349
S1130A1011F4397E09C032FF06C0B394B39404C004
S1130A20832F867809F0B39433FD13C030FF06C0DA
S1130A305A2CB31418F4530C5B18B32CB31468F485
S1130A40B70180E290E03C870E948E05B3943C8518
S1130A50F5CFB31410F43B1801C0312C34FF12C08D
S1130A60B70180E390E03C870E948E053C8532FF0D
S1130A7017C031FD03C088E790E002C088E590E02C
S1130A80B7010CC0832F867859F031FF02C08BE286
S1130A9001C080E237FD8DE2B70190E00E948E052F
S1130AA0A51438F4B70180E390E00E948E055A94AF
S1130AB0F7CFAA94F401EA0DF11D8081B70190E00B
S1130AC00E948E05A110F5CF332009F451CEB70151
S1130AD080E290E00E948E053A94F6CFF701868179
S1130AE0978102C08FEF9FEF2C96E2E10C944006B1
S1130AF0FC010590615070400110D8F780959095E5
S1130B008E0F9F1F0895FC016150704001900110E9
S1130B10D8F7809590958E0F9F1F08950F931F937C
S1130B20CF93DF93FB01238121FD03C08FEF9FEF60
S1130B3028C022FF16C0468157812481358142177F
S1130B40530744F4A081B1819D012F5F3F4F31834E
S1130B5020838C93268137812F5F3F4F37832683F1
S1130B6010C0EB01092F182F0084F185E02D0995A1
S1130B70892BE1F68E819F8101969F838E83812F3D
S1130B80902FDF91CF911F910F910895FA01AA2719
S1130B90283051F1203181F1E8946F936E7F6E5FBC
S1130BA07F4F8F4F9F4FAF4FB1E03ED0B4E03CD06A
S1130BB0670F781F891F9A1FA11D680F791F8A1F4D
S1130BC0911DA11D6A0F711D811D911DA11D20D0B4
S1130BD009F468943F912AE0269F11243019305D6E
S1130BE03193DEF6CF010895462F4770405D41935F
S1130BF0B3E00FD0C9F7F6CF462F4F70405D4A33AC
S1130C0018F0495D31FD4052419302D0A9F7EACF73
S1130C10B4E0A6959795879577956795BA95C9F7A2
S1130C2000976105710508959B01AC010A2E069495
S1130C305795479537952795BA95C9F7620F731F4E
S1130C40841F951FA01D08952F923F924F925F928B
S1130C506F927F928F929F92AF92BF92CF92DF92C8
S1130C60EF92FF920F931F93CF93DF93CDB7DEB72D
S1130C70CA1BDB0B0FB6F894DEBF0FBECDBF0994C1
S1130C802A88398848885F846E847D848C849B8418
S1130C90AA84B984C884DF80EE80FD800C811B8126
S1130CA0AA81B981CE0FD11D0FB6F894DEBF0FBE55
S10D0CB0CDBFED010895F894FFCFC5
S1130CBA4D41494E204D454E550053455454494ED5
S1130CCA47530050524F46494C4500415544494FF9
S1130CDA0055534552530047454E4552414C004432
S1130CEA4953504C4159004D4F4445004241434BEE
S1130CFA004E414D45004147450041444452455345
S1130D0A5300564F4C554D4500455155414C495A8F
S1130D1A4552004D555445004352454154452055CA
S1130D2A5345520052454D4F56452055534552009E
S1130D3A4D4F444946592055534552001B5B3332A3
S1130D4A6D3E001B5B33373B316D20001B5B324A1F
S1130D5A1B5B48001B5B33313B316D0025732573E4
S1130D6A0A0D25732025730A0D25732025730A0D90
S1110D7A25732025730A0D25732025730000B0
S9030000FC
