S00F00004156526D656E752E7372656377
S11300000C9434000C9451000C9451000C94130281
S11300100C94C7010C9451000C9451000C945100A1
S11300200C9451000C9451000C9451000C94510008
S11300300C9451000C9451000C9451000C945100F8
S11300400C9451000C9451000C9451000C945100E8
S11300500C9451000C9451000C9451000C945100D8
S11300600C9451000C94510011241FBECFEFD8E022
S1130070DEBFCDBF11E0A0E0B1E0E6E0FDE002C0EC
S113008005900D92A43DB107D9F722E0A4EDB1E0AB
S113009001C01D92A13AB207E1F70E9453000C94EB
S11300A081060C94000087B18C7F87B9E8E6F0E004
S11300B0808183608083ECE6F0E0808181608083CE
S11300C0EBE6F0E080818068808341E060E080E8D6
S11300D095E20E940A037894E8EDF1E080E091E073
S11300E0918380836AE071E07383628343E151E02A
S11300F0558344832BE131E03783268381E291E009
S113010091878087E9E7F2E07183608353834283B8
S1130110358324839783868387E291E09187808760
S11301208FE291E09387828787E391E095878487C4
S11301308CE391E09787868721E431E0318B208B33
S113014026E431E0338B228B2AE431E0358B248B97
S1130150978B868B22E531E0318F208F29E531E0C2
S1130160338F228F23E631E0358F248F978F868F4C
S113017028E631E031A320A324E731E033A322A30E
S113018020E831E035A324A397A386A3FFCF6F9281
S11301907F928F929F92AF92BF92CF92DF92EF9213
S11301A0FF920F931F93CF93DF938AE991E00E940C
S11301B06C038091D6019091D701FC01EE0FFF1FD3
S11301C0EE0FFF1FEE0FFF1FE758FD4FD68107818B
S11301D02091D4013091D5012330310509F483C035
S11301E0FC01EE0FFF1FEE0FFF1FEE0FFF1FE7587E
S11301F0FD4FF480E5802230310509F487C068940E
S1130200DD24D5F8C12CA2E9B1E0FC01EE0FFF1FFB
S1130210EE0FFF1FEE0FFF1FE758FD4FA2808380F4
S11302202130310509F48BC06894992495F8B12CD8
S113023062E971E0FC01EE0FFF1FEE0FFF1FEE0FEE
S1130240FF1FE758FD4F60807180232B49F410E2B3
S1130250C0E042E951E0FEE3E0E02CE831E007C011
S113026010E2C0E042E951E0F0E2E0E09A010F93CD
S1130270DF93CF92DF92BF93AF93EF92FF92BF923F
S11302809F927F936F938F92AF92CF931F935F93BD
S11302904F937F926F92EF93FF933F932F93880F27
S11302A0991FFC01E852FE4F81818F9380818F93C7
S11302B082EA91E09F938F938AEA91E09F938F93D0
S11302C082EE91E09F938F930E94A9038DB79EB70E
S11302D080960FB6F8949EBF0FBE8DBF82EE91E05C
S11302E00E946C0345C0FC01EE0FFF1FEE0FFF1FC1
S11302F0EE0FFF1FE758FD4FF480E5800F2EFEE35D
S1130300DF2EF02DC12CACE8B1E07FCFFC01EE0F65
S1130310FF1FEE0FFF1FEE0FFF1FE758FD4FA280D8
S113032083800F2EFEE39F2EF02DB12C6894DD24E4
S1130330D5F8C12C6CE871E0A2E9B1E07BCFFC01F7
S1130340EE0FFF1FEE0FFF1FEE0FFF1FE758FD4FCD
S1130350608071801EE3C0E06894992495F8B12C04
S11303604CE851E062E971E0F0E2E0E09B017FCF0C
S1130370DF91CF911F910F91FF90EF90DF90CF907D
S1130380BF90AF909F908F907F906F9008951F9231
S11303900F920FB60F9211242F933F934F935F93B5
S11303A06F937F938F939F93AF93BF93EF93FF9339
S11303B0309928C0319B13C08091D4019091D5010C
S11303C0009739F483E090E09093D5018093D401B1
S11303D017C001979093D5018093D40111C08091E7
S11303E0D4019091D5018330910529F41092D5015F
S11303F01092D40105C001969093D5018093D40145
S11304000E94C700FF91EF91BF91AF919F918F918F
S11304107F916F915F914F913F912F910F900FBEFC
S11304200F901F9018951F920F920FB60F921124E0
S11304302F933F934F935F936F937F938F939F93E8
S1130440AF93BF93EF93FF931F99D3C08091D601CD
S11304509091D7018230910509F46CC034F400976F
S113046061F0019709F446C0C2C08330910509F4D4
S113047081C0049709F49DC0BAC08091D4019091C1
S1130480D50181309105A9F01CF4892B39F0AFC056
S113049082309105C9F0039711F1A9C081E090E081
S11304A09093D7018093D6011092D5011092D40174
S11304B09EC082E090E09093D7018093D601109281
S11304C0D5011092D40193C083E090E09093D701BA
S11304D08093D6011092D5011092D40188C084E093
S11304E090E09093D7018093D6011092D501109299
S11304F0D4017DC08091D4019091D50182309105C1
S113050059F08330910569F0019709F070C0109299
S1130510D5011092D4016BC01092D5011092D40170
S113052066C01092D7011092D6011092D501109294
S1130530D4015DC08091D4019091D50182309105A0
S113054059F08330910569F0019709F050C0109279
S1130550D5011092D4014BC01092D5011092D40150
S113056046C01092D7011092D6011092D501109274
S1130570D4013DC08091D4019091D5018230910580
S113058051F08330910561F0019789F51092D501FE
S11305901092D4012CC01092D5011092D40127C01E
S11305A01092D7011092D6011092D5011092D40165
S11305B01EC08091D4019091D5018230910551F0F3
S11305C08330910561F0019791F41092D501109256
S11305D0D4010DC01092D5011092D40108C010921C
S11305E0D7011092D6011092D5011092D4010E9425
S11305F0C700FF91EF91BF91AF919F918F917F9130
S11306006F915F914F913F912F910F900FBE0F907B
S11306101F901895CF93DF939C01C62FD42FE1EC44
S1130620F0E0808188618083B90176956795CB017C
S1130630A0E0B0E0BC01CD01605C7D4B804F9F4FDA
S113064040E050E00E948703DA01C9010197A10943
S1130650B109892F9A2FAB2FBB278093C500215056
S11306602093C400C13051F018F0C23081F014C09E
S1130670E2ECF0E080818F7C80830EC0E2ECF0E05D
S113068080818062808380818F7E808305C0E2ECDC
S1130690F0E0808180638083D13019F0D23039F06A
S11306A00BC0E2ECF0E08081877F808305C0E2EC40
S11306B0F0E0808188608083E2ECF0E080818660F5
S11306C08083DF91CF910895E0ECF0E0908195FF75
S11306D0FDCF8093C60008950F931F93CF93DF93AC
S11306E0FC0101900020E9F73197E81BF90B51F068
S11306F0EC018C010E0F1F1F89910E946403C01727
S1130700D107D1F7DF91CF911F910F910895A1E205
S11307101A2EAA1BBB1BFD010DC0AA1FBB1FEE1F77
S1130720FF1FA217B307E407F50720F0A21BB30BC2
S1130730E40BF50B661F771F881F991F1A9469F73E
S113074060957095809590959B01AC01BD01CF019A
S11307500895AEE0B0E0EFEAF3E00C9458060D899A
S11307601E8986E08C831A8309838FEF9FE79E831B
S11307708D83AE01475E5F4F6F89788DCE01019600
S11307800E94CC032F813885F801E20FF31F1082F9
S11307902E96E4E00C947406ACE0B0E0E2EDF3E0F5
S11307A00C944A067C016B018A01FC0117821682B3
S11307B0838181FFBDC1CE0101964C01F701938174
S11307C0F60193FD859193FF81916F01882309F4CC
S11307D0ABC1853239F493FD859193FF81916F010B
S11307E0853229F4B70190E00E94B405E7CF512C7B
S11307F0312C20E02032A0F48B3269F030F48032C6
S113080059F0833269F420612CC08D3239F0803381
S113081039F4216026C02260246023C0286021C0EE
S113082027FD27C030ED380F3A3078F426FF06C094
S1130830FAE05F9E300D1124532E13C08AE0389ED7
S1130840300D1124332E20620CC08E3221F426FD8B
S11308506BC1206406C08C3611F4206802C088364F
S113086041F4F60193FD859193FF81916F0181110C
S1130870C1CF982F9F7D9554933028F40C5F1F4F60
S1130880FFE3F9830DC0833631F0833771F083358C
S113089009F05BC022C0F801808189830E5F1F4F7D
S11308A044244394512C540115C03801F2E06F0ED6
S11308B0711CF801A080B18026FF03C0652D70E093
S11308C002C06FEF7FEFC5012C870E94A9052C01A0
S11308D083012C852F77222E17C03801F2E06F0E8A
S11308E0711CF801A080B18026FF03C0652D70E063
S11308F002C06FEF7FEFC5012C870E949E052C017B
S11309002C852068222E830123FC1BC0832D90E0BC
S113091048165906B0F4B70180E290E00E94B4058D
S11309203A94F4CFF50127FC859127FE81915F016C
S1130930B70190E00E94B40531103A94F1E04F1AE7
S113094051084114510471F7E5C0843611F0893619
S113095039F5F80127FF07C0608171818281938195
S11309600C5F1F4F08C060817181072E000C880B3B
S1130970990B0E5F1F4F2F76722E97FF09C090952B
S11309808095709561957F4F8F4F9F4F2068722E91
S11309902AE030E0A4010E94EC05A82EA81844C067
S11309A0853729F42F7EB22E2AE030E025C0F22FBD
S11309B0F97FBF2E8F36C1F018F4883579F0B4C0B2
S11309C0803719F0883721F0AFC02F2F2061B22E65
S11309D0B4FE0DC08B2D8460B82E09C024FF0AC05C
S11309E09F2F9660B92E06C028E030E005C020E1B4
S11309F030E002C020E132E0F801B7FE07C06081B8
S1130A007181828193810C5F1F4F06C06081718167
S1130A1080E090E00E5F1F4FA4010E94EC05A82E19
S1130A20A818FB2DFF777F2E76FE0BC0372D3E7F57
S1130A30A51450F474FE0AC072FC08C0372D3E7E23
S1130A4005C0BA2C372D03C0BA2C01C0B52C34FF15
S1130A500DC0FE01EA0DF11D8081803311F4397E51
S1130A6009C032FF06C0B394B39404C0832F8678C0
S1130A7009F0B39433FD13C030FF06C05A2CB314ED
S1130A8018F4530C5B18B32CB31468F4B70180E268
S1130A9090E03C870E94B405B3943C85F5CFB31431
S1130AA010F43B1801C0312C34FF12C0B70180E3AD
S1130AB090E03C870E94B4053C8532FF17C031FDAD
S1130AC003C088E790E002C088E590E0B7010CC05D
S1130AD0832F867859F031FF02C08BE201C080E297
S1130AE037FD8DE2B70190E00E94B405A51438F4F7
S1130AF0B70180E390E00E94B4055A94F7CFAA941A
S1130B00F401EA0DF11D8081B70190E00E94B40563
S1130B10A110F5CF332009F451CEB70180E290E063
S1130B200E94B4053A94F6CFF7018681978102C0FA
S1130B308FEF9FEF2C96E2E10C946606FC01059082
S1130B40615070400110D8F7809590958E0F9F1FCB
S1130B500895FC016150704001900110D8F7809510
S1130B6090958E0F9F1F08950F931F93CF93DF933C
S1130B70FB01238121FD03C08FEF9FEF28C022FFDB
S1130B8016C046815781248135814217530744F4A6
S1130B90A081B1819D012F5F3F4F318320838C93CE
S1130BA0268137812F5F3F4F3783268310C0EB01A7
S1130BB0092F182F0084F185E02D0995892BE1F682
S1130BC08E819F8101969F838E83812F902FDF9149
S1130BD0CF911F910F910895FA01AA27283051F15E
S1130BE0203181F1E8946F936E7F6E5F7F4F8F4F5A
S1130BF09F4FAF4FB1E03ED0B4E03CD0670F781FB9
S1130C00891F9A1FA11D680F791F8A1F911DA11D9D
S1130C106A0F711D811D911DA11D20D009F46894D6
S1130C203F912AE0269F11243019305D3193DEF67E
S1130C30CF010895462F4770405D4193B3E00FD034
S1130C40C9F7F6CF462F4F70405D4A3318F0495D1F
S1130C5031FD4052419302D0A9F7EACFB4E0A69502
S1130C609795879577956795BA95C9F70097610524
S1130C70710508959B01AC010A2E0694579547957A
S1130C8037952795BA95C9F7620F731F841F951F6F
S1130C90A01D08952F923F924F925F926F927F9280
S1130CA08F929F92AF92BF92CF92DF92EF92FF9278
S1130CB00F931F93CF93DF93CDB7DEB7CA1BDB0B24
S1130CC00FB6F894DEBF0FBECDBF09942A883988C9
S1130CD048885F846E847D848C849B84AA84B984D0
S1130CE0C884DF80EE80FD800C811B81AA81B981DC
S1130CF0CE0FD11D0FB6F894DEBF0FBECDBFED01F0
S1090D000895F894FFCFF2
S1130D064D41494E204D454E550053455454494E88
S1130D1647530050524F46494C4500415544494FAC
S1130D260055534552530047454E4552414C0044E5
S1130D364953504C4159004D4F4445004241434BA1
S1130D46004E414D450041474500414444524553F8
S1130D565300564F4C554D4500455155414C495A43
S1130D664552004D5554450043524541544520557E
S1130D765345520052454D4F564520555345520052
S1130D864D4F444946592055534552001B5B333257
S1130D966D001B5B33373B316D001B5B324A1B5BBB
S1130DA648001B5B33313B316D00257325730A0DF7
S1130DB6257325632025730A0D2573256320257362
S1130DC60A0D257325632025730A0D2573256320D3
S1070DD6257300007D
S9030000FC
