S00F00005363616E6E65722E737265634B
S11300000C9459000C9481000C9481000C94810090
S11300100C9481000C9481000C9481000C94810058
S11300200C9481000C9481000C9481000C94810048
S11300300C9481000C9481000C9481000C94810038
S11300400C949B030C9481000C9425020C9457028D
S11300500C9481000C9481000C9481000C94810018
S11300600C94F7050C9481000000000800020100C4
S1130070000304070000000000000000010204085F
S113008010204080010204081020010204081020FE
S1130090040404040404040402020202020203032A
S11300A00303030300000000250028002B0087023F
S11300B0460511241FBECFEFD8E0DEBFCDBF11E04F
S11300C0A0E0B1E0EEE4FFE002C005900D92A63A94
S11300D0B107D9F723E0A6EAB1E001C01D92AC3024
S11300E0B207E1F710E0C9E5D0E004C02197FE01B2
S11300F00E949F07C735D107C9F70E94B5020C9427
S1130100A5070C9400008CE492E00E941C0526E0F4
S113011040E855E260E070E086EA91E00E94C001A8
S113012060E071E086EA91E00C940A030F931F9358
S1130130CF936DE071E086EA91E00E940A0300E04B
S113014010E0C1E06C2F8CE492E00E9426058CE460
S113015092E00E94430581111EC069E171E086EAC4
S113016091E00E940403C03130F468E371E086EA50
S113017091E00E94040340E150E06C2F86EA91E094
S11301800E947D036AE371E086EA91E00E940A031B
S11301900F5F1F4F17C08430A9F46EE371E086EA45
S11301A091E00E940403C03130F468E371E086EA10
S11301B091E00E94040340E150E06C2F86EA91E054
S11301C00E948403CF5FCF3709F0BCCF012B19F411
S11301D06AE571E002C060E771E086EA91E00E949E
S11301E00A0368E873E180E090E0CF911F910F91DA
S11301F00C940A04FC01918D228D892F90E0805C7F
S11302009F4F821B91098F7399270895FC01918D4B
S1130210828D981731F0828DE80FF11D858D90E065
S113022008958FEF9FEF0895FC01918D828D9817AB
S113023061F0828DDF01A80FB11D5D968C91928DC6
S11302409F5F9F73928F90E008958FEF9FEF0895C3
S11302508DE792E0892B49F080E090E0892B29F02A
S11302600E947D0281110C9400000895FC01848D8C
S1130270DF01A80FB11DA35ABF4F2C91848D90E0CC
S113028001968F739927848FA689B7892C93A089A7
S1130290B1898C9180648C93938D848D981306C05E
S11302A00288F389E02D80818F7D80830895CF9328
S11302B0DF93EC01888D8823C9F0EA89FB8980816A
S11302C085FD05C0A889B9898C9186FD0FC00FB63C
S11302D007FCF5CF808185FFF2CFA889B9898C917D
S11302E085FFEDCFCE010E943601E7CFDF91CF919C
S11302F00895EF92FF920F931F93CF93DF93EC0136
S113030081E0888F9B8D8C8D981305C0E889F989CD
S1130310808185FD24C0F62E0B8D10E00F5F1F4FEA
S11303200F731127E02E8C8DE8120CC00FB607FC5A
S1130330FACFE889F989808185FFF5CFCE010E9443
S11303403601F1CF8B8DFE01E80FF11DE35AFF4F0B
S1130350F0820B8FEA89FB898081806207C0EE8975
S1130360FF896083E889F98980818064808381E0E2
S113037090E0DF91CF911F910F91FF90EF9008953E
S1130380CF92DF92EF92FF921F93CF93DF93EC0112
S11303906A017B01122FE889F98982E08083411583
S11303A0514E61057105B1F060E079E08DE390E0B4
S11303B0A70196010E947D07DA01C9010197A109ED
S11303C0B109B695A79597958795AC01411580E13C
S11303D05807A8F0E889F989108260E874E88EE18A
S11303E090E0A70196010E947D07BA01A90141503E
S11303F05109610971097695679557954795EC857B
S1130400FD855083EE85FF854083188EEC89FD8938
S11304101083EA89FB89808180618083EA89FB8972
S1130420808188608083EA89FB89808180688083F9
S1130430EA89FB8980818F7D8083DF91CF911F9131
S1130440FF90EF90DF90CF9008951F920F920FB618
S11304500F9211242F938F939F93EF93FF93E09127
S1130460B601F091B7018081E091BC01F091BD012A
S113047082FD12C090818091BF018F5F8F732091A4
S1130480C001821751F0E091BF01F0E0EA55FE4F40
S1130490958F8093BF0101C08081FF91EF919F915F
S11304A08F912F910F900FBE0F901F9018951F9250
S11304B00F920FB60F9211242F933F934F935F9394
S11304C06F937F938F939F93AF93BF93EF93FF9318
S11304D086EA91E00E943601FF91EF91BF91AF91BE
S11304E09F918F917F916F915F914F913F912F9148
S11304F00F900FBE0F901F90189586EA91E00E940E
S1130500FA0021E0892B09F420E0822F0895E6EA1D
S1130510F1E01382128288EE93E0A0E0B0E08483DD
S11305209583A683B7838AE791E09183808385ECE2
S113053090E09587848784EC90E09787868780ECA9
S113054090E0918B808B81EC90E0938B828B82EC9A
S113055090E0958B848B86EC90E0978B868B118E44
S1130560128E138E148E089508950E9446040E94DC
S1130570B4020E948300C8E2D1E00E949600209752
S1130580E1F30E942801F9CFCF92DF92EF92FF921C
S11305900F931F93CF93DF936C017A018B01C0E01B
S11305A0D0E0CE15DF0589F0D8016D918D01D6011B
S11305B0ED91FC910190F081E02DC6010995892B04
S11305C011F47E0102C02196ECCFC701DF91CF91D7
S11305D01F910F91FF90EF90DF90CF9008956115D8
S11305E0710579F0FB0101900020E9F73197AF0123
S11305F0461B570BDC01ED91FC910280F381E02D49
S1130600099480E090E008950C94EF0266E871E0AC
S11306100C94EF020F931F93CF93DF93EC010E948E
S1130620EF028C01CE010E940603800F911FDF911F
S1130630CF911F910F9108958F929F92AF92BF9285
S1130640CF92DF92EF92FF920F931F93CF93DF939A
S1130650CDB7DEB7A1970FB6F894DEBF0FBECDBFFE
S11306607C01D42EC52EDB0119A2223008F42AE025
S11306708E010F5D1F4F822E912CA12CB12C6D2D5C
S11306807C2DCD01A50194010E947D07D22EC32E9D
S1130690DA01015011096A3071058105910510F4E0
S11306A0605D01C0695CF8016083232B242B252B3A
S11306B031F7B801C7010E94EF02A1960FB6F89472
S11306C0DEBF0FBECDBFDF91CF911F910F91FF9081
S11306D0EF90DF90CF90BF90AF909F908F90089550
S11306E02115310541F4DC01ED91FC910190F0817B
S11306F0E02D642F09940C941C039A01462F50E0BA
S113070060E070E00C9470030F931F93CF93DF931A
S1130710EC019A01462F50E060E070E00E94700303
S11307208C01CE010E940603800F911FDF91CF91AF
S11307301F910F9108951F920F920FB60F921124DB
S11307402F933F938F939F93AF93BF9380914402D2
S113075090914502A0914602B09147023091430224
S113076023E0230F2D3720F40196A11DB11D05C0F0
S113077026E8230F0296A11DB11D20934302809306
S1130780440290934502A0934602B093470280919D
S1130790480290914902A0914A02B0914B020196FD
S11307A0A11DB11D8093480290934902A0934A026F
S11307B0B0934B02BF91AF919F918F913F912F9135
S11307C00F900FBE0F901F9018953FB7F89480912B
S11307D0480290914902A0914A02B0914B0226B579
S11307E0A89B05C02F3F19F00196A11DB11D3FBF65
S11307F0BA2FA92F982F8827820F911DA11DB11DF3
S1130800BC01CD0142E0660F771F881F991F4A95EE
S1130810D1F708958F929F92AF92BF92CF92DF92B9
S1130820EF92FF926B017C010E94E5034B015C0196
S1130830C114D104E104F10401F10E944A050E94AB
S1130840E503DC01CB0188199909AA09BB09883E93
S11308509340A105B10560F321E0C21AD108E10873
S1130860F10888EE880E83E0981EA11CB11CC11407
S1130870D104E104F10419F7DBCFFF90EF90DF908E
S1130880CF90BF90AF909F908F900895789484B547
S1130890826084BD84B5816084BD85B5826085BD78
S11308A085B5816085BDEEE6F0E08081816080835E
S11308B0E1E8F0E010828081826080838081816041
S11308C08083E0E8F0E0808181608083E1EBF0E008
S11308D0808184608083E0EBF0E0808181608083AC
S11308E0EAE7F0E080818460808380818260808395
S11308F08081816080838081806880831092C100C0
S1130900089580917C0290E020917D02821B9109E0
S1130910089590917D0280917C02981750F4E92FFC
S1130920F0E0E258FD4F208130E09F5F90937D021C
S113093002C02FEF3FEFC9010895E0917D0280913D
S11309407C02E81730F4F0E0E258FD4F808190E03B
S113095008958FEF9FEF08950895CF92DF92EF925D
S1130960FF920F931F93CF93DF937C01262F972F32
S11309708A0180915802882391F0C62FD72F6E01E7
S1130980C40ED51ECC15DD0571F06991D701ED912A
S1130990FC910190F081E02DC7010995F3CF642FFC
S11309A0822F0E94BF05C801DF91CF911F910F9143
S11309B0FF90EF90DF90CF900895CF93DF931F9235
S11309C0CDB7DEB76983209158022223D1F020915C
S11309D05902203240F021E030E0FC0133832283CD
S11309E080E090E015C080915A02E82FF0E0E55ACB
S11309F0FD4F998190838F5F80935A0280935902AF
S1130A0005C061E0CE0101960E94BF0581E090E03F
S1130A100F90DF91CF910895FC011382128288EE2A
S1130A2093E0A0E0B0E084839583A683B78389E94B
S1130A3091E091838083089510927D0210927C024C
S1130A4010925A02109259020C944B0581E0809343
S1130A50580260937B0210925A0210925902089530
S1130A600F93062F21E0409159026BE572E08091CB
S1130A707B020E94690510925A0210925902109248
S1130A8058020F91089561E00C9430058CE492E0D3
S1130A900C940C05089510920B0381E080930903D4
S1130AA01092080361E082E10E944D0761E083E156
S1130AB00E944D07E9EBF0E080818E7F8083808186
S1130AC08D7F808388E48093B80085E48093BC00A4
S1130AD008950F93413208F04AC090910B0391118D
S1130AE0FCCF32E030930B03009309033FEF3093C4
S1130AF09E021092E3024093E202FB0164EE72E074
S1130B00DB013A2F361B341718F431913D93F9CF9A
S1130B1010920A0330910A03880F832B80930A03EF
S1130B2080910803813061F41092080380910A03D4
S1130B308093BB008091BC0083FDF8CF85EC01C09D
S1130B4085EE8093BC00222321F080910B03823038
S1130B50D1F380919E028F3F79F080919E02803282
S1130B6041F080919E02803331F094E005C091E021
S1130B7003C092E001C093E0892F0F910895409142
S1130B80C002262F30E0240F311D21323105DCF460
S1130B9020910B032430C9F4FC0180E090E0861717
S1130BA058F43091C0022191DC01AE53BD4FA30F24
S1130BB0B11D2C930196F3CF8091C002680F60930E
S1130BC0C00280E0089581E0089582E0089585EDF3
S1130BD08093BC008091BC0084FDFCCF10920B0379
S1130BE0089585EC8093BC0010920B0308951F9226
S1130BF00F920FB60F9211242F933F934F935F934D
S1130C006F937F938F939F93AF93BF93EF93FF93D0
S1130C108091B900887F803609F49EC078F58832C7
S1130C2009F45DC090F4803109F456C038F4882387
S1130C3009F4F5C0883009F44FC0F5C0883109F4CF
S1130C404EC0803209F45FC0EEC0803409F46AC03B
S1130C5058F4803309F457C0883309F0E4C0809312
S1130C609E020E94F105DFC0803509F44FC088352B
S1130C7009F45DC0883409F0D6C0D3C0883909F4BA
S1130C80C4C0A8F4883709F467C038F4883609F476
S1130C9063C0803709F460C0C6C0883809F4B5C0A1
S1130CA0803909F45FC0803809F0BDC05BC0803B67
S1130CB009F483C038F4803A09F466C0883A09F428
S1130CC07CC0B1C0803C09F4A4C0883C09F4A1C034
S1130CD0883B09F487C0A7C080910A0310C0909193
S1130CE0E3028091E202981770F5E091E30281E05B
S1130CF08E0F8093E302F0E0EC51FD4F80818093EE
S1130D00BB0085EC83C080939E028BC0E091E3021C
S1130D1081E08E0F8093E3028091BB00F0E0EC5100
S1130D20FD4F80839091E3028091E2026BC0E091D9
S1130D30E30281E08E0F8093E3028091BB00F0E038
S1130D40EC51FD4F80838091090381116AC081E0D9
S1130D508093080384EA5EC083E080930B031092BF
S1130D609F02CFCF80919F02803208F04EC0E09165
S1130D709F0281E08E0F80939F028091BB00F0E080
S1130D80E056FD4F8083BDCF0E94F10580919F0204
S1130D90803230F4E0919F02F0E0E056FD4F108283
S1130DA060919F0270E0E0910403F091050380EAF2
S1130DB092E0099510929F0236C084E080930B0361
S1130DC01092C1021092C002E0910603F091070351
S1130DD009958091C002811105C081E08093C00211
S1130DE01092C202E091C10281E08E0F8093C10291
S1130DF0F0E0EE53FD4F80818093BB009091C102DF
S1130E008091C002981708F47CCF85E88093BC00D9
S1130E100AC085EC8093BC0010920B0304C01092AE
S1130E209E020E94E705FF91EF91BF91AF919F91C0
S1130E308F917F916F915F914F913F912F910F907F
S1130E400FBE0F901F901895833081F028F48130E5
S1130E5099F08230A1F008958730A9F08830B9F074
S1130E608430D1F4809180008F7D03C08091800014
S1130E708F7780938000089584B58F7702C084B5FE
S1130E808F7D84BD08958091B0008F7703C08091D9
S1130E90B0008F7D8093B00008951F93CF93DF93AC
S1130EA0282F30E0F901E859FF4F8491F901E45803
S1130EB0FF4FD491F901E057FF4FC491CC23C9F0FF
S1130EC0162F81110E942407EC2FF0E0EE0FFF1F74
S1130ED0EC55FF4FA591B4918FB7F894111105C04B
S1130EE09C91ED2FE095E92302C0EC91ED2BEC935E
S1130EF08FBFDF91CF911F910895A1E21A2EAA1BF3
S1130F00BB1BFD010DC0AA1FBB1FEE1FFF1FA217B5
S1130F10B307E407F50720F0A21BB30BE40BF50BB2
S1130F20661F771F881F991F1A9469F7609570953B
S1130F30809590959B01AC01BD01CF010895EE0F02
S1110F40FF1F0590F491E02D0994F894FFCF63
S1130F4E0A493243205363616E6E657200536361C6
S1130F5E6E6E696E672E2E2E0049324320646576BE
S1130F6E69636520666F756E6420617420616464C4
S1130F7E7265737320307800300020202100556E86
S1130F8E6B6E6F776E206572726F72206174206162
S1130F9E646472657373203078004E6F2049324357
S1130FAE206465766963657320666F756E640A00E6
S1130FBE646F6E650A00000000007901C402FA0035
S1130FCE1401060157010D0A006E616E00696E660A
S1130FDE006F76660000000000DD04AD0481048914
S1090FEE049D04AC0400A4
S9030000FC
